{
  "_format": "hh-sol-artifact-1",
  "contractName": "ChildContract",
  "sourceName": "contracts/SmartContract_SLA.sol",
  "abi": [
    {
      "inputs": [
        {
          "internalType": "uint256",
          "name": "index",
          "type": "uint256"
        },
        {
          "internalType": "address",
          "name": "parentAddress",
          "type": "address"
        },
        {
          "internalType": "uint8",
          "name": "_serviceAvailabilityAgreement",
          "type": "uint8"
        },
        {
          "internalType": "uint8",
          "name": "_allocatedVcpus",
          "type": "uint8"
        },
        {
          "internalType": "uint8",
          "name": "_monitoringPeriod",
          "type": "uint8"
        }
      ],
      "stateMutability": "nonpayable",
      "type": "constructor"
    },
    {
      "inputs": [
        {
          "internalType": "uint8",
          "name": "data",
          "type": "uint8"
        }
      ],
      "name": "addUsageData",
      "outputs": [],
      "stateMutability": "nonpayable",
      "type": "function"
    },
    {
      "inputs": [],
      "name": "contractState",
      "outputs": [
        {
          "internalType": "uint256",
          "name": "index",
          "type": "uint256"
        },
        {
          "internalType": "address",
          "name": "parentContract",
          "type": "address"
        },
        {
          "internalType": "address",
          "name": "providerWallet",
          "type": "address"
        },
        {
          "internalType": "address",
          "name": "customerWallet",
          "type": "address"
        },
        {
          "internalType": "uint256",
          "name": "subscriptionAmount",
          "type": "uint256"
        },
        {
          "internalType": "uint8",
          "name": "serviceAvailabilityAgreement",
          "type": "uint8"
        },
        {
          "internalType": "uint8",
          "name": "allocatedVcpus",
          "type": "uint8"
        },
        {
          "internalType": "uint8",
          "name": "monitoringPeriod",
          "type": "uint8"
        }
      ],
      "stateMutability": "view",
      "type": "function"
    },
    {
      "inputs": [],
      "name": "isContractTerminated",
      "outputs": [
        {
          "internalType": "bool",
          "name": "",
          "type": "bool"
        }
      ],
      "stateMutability": "view",
      "type": "function"
    },
    {
      "inputs": [],
      "name": "owner",
      "outputs": [
        {
          "internalType": "address",
          "name": "",
          "type": "address"
        }
      ],
      "stateMutability": "view",
      "type": "function"
    },
    {
      "inputs": [],
      "name": "subscribe",
      "outputs": [],
      "stateMutability": "payable",
      "type": "function"
    },
    {
      "inputs": [],
      "name": "terminate",
      "outputs": [],
      "stateMutability": "nonpayable",
      "type": "function"
    }
  ],
  "bytecode": "0x60806040523480156200001157600080fd5b50604051620015c9380380620015c9833981810160405281019062000037919062000423565b336000806101000a81548173ffffffffffffffffffffffffffffffffffffffff021916908373ffffffffffffffffffffffffffffffffffffffff16021790555060405180610120016040528086815260200160008054906101000a900473ffffffffffffffffffffffffffffffffffffffff1673ffffffffffffffffffffffffffffffffffffffff1681526020018573ffffffffffffffffffffffffffffffffffffffff168152602001600073ffffffffffffffffffffffffffffffffffffffff168152602001600081526020018460ff1681526020018360ff1681526020018260ff168152602001600067ffffffffffffffff81111562000162577f4e487b7100000000000000000000000000000000000000000000000000000000600052604160045260246000fd5b604051908082528060200260200182016040528015620001915781602001602082028036833780820191505090505b5081525060016000820151816000015560208201518160010160006101000a81548173ffffffffffffffffffffffffffffffffffffffff021916908373ffffffffffffffffffffffffffffffffffffffff16021790555060408201518160020160006101000a81548173ffffffffffffffffffffffffffffffffffffffff021916908373ffffffffffffffffffffffffffffffffffffffff16021790555060608201518160030160006101000a81548173ffffffffffffffffffffffffffffffffffffffff021916908373ffffffffffffffffffffffffffffffffffffffff1602179055506080820151816004015560a08201518160050160006101000a81548160ff021916908360ff16021790555060c08201518160050160016101000a81548160ff021916908360ff16021790555060e08201518160050160026101000a81548160ff021916908360ff1602179055506101008201518160060190805190602001906200030292919062000311565b5090505050505050506200053e565b82805482825590600052602060002090601f01602090048101928215620003ac5791602002820160005b838211156200037b57835183826101000a81548160ff021916908360ff16021790555092602001926001016020816000010492830192600103026200033b565b8015620003aa5782816101000a81549060ff02191690556001016020816000010492830192600103026200037b565b505b509050620003bb9190620003bf565b5090565b5b80821115620003da576000816000905550600101620003c0565b5090565b600081519050620003ef81620004f0565b92915050565b60008151905062000406816200050a565b92915050565b6000815190506200041d8162000524565b92915050565b600080600080600060a086880312156200043c57600080fd5b60006200044c88828901620003f5565b95505060206200045f88828901620003de565b945050604062000472888289016200040c565b935050606062000485888289016200040c565b925050608062000498888289016200040c565b9150509295509295909350565b6000620004b282620004b9565b9050919050565b600073ffffffffffffffffffffffffffffffffffffffff82169050919050565b6000819050919050565b600060ff82169050919050565b620004fb81620004a5565b81146200050757600080fd5b50565b6200051581620004d9565b81146200052157600080fd5b50565b6200052f81620004e3565b81146200053b57600080fd5b50565b61107b806200054e6000396000f3fe6080604052600436106100555760003560e01c80630c08bf881461005a5780632c05a2f11461007157806376b5d5a91461009c57806385209ee0146100c55780638da5cb5b146100f75780638f449a0514610122575b600080fd5b34801561006657600080fd5b5061006f61012c565b005b34801561007d57600080fd5b506100866102c0565b6040516100939190610b9f565b60405180910390f35b3480156100a857600080fd5b506100c360048036038101906100be9190610a70565b61031b565b005b3480156100d157600080fd5b506100da6105e1565b6040516100ee989796959493929190610c5a565b60405180910390f35b34801561010357600080fd5b5061010c61069e565b6040516101199190610b84565b60405180910390f35b61012a6106c2565b005b60008054906101000a900473ffffffffffffffffffffffffffffffffffffffff1673ffffffffffffffffffffffffffffffffffffffff163373ffffffffffffffffffffffffffffffffffffffff16146101ba576040517f08c379a00000000000000000000000000000000000000000000000000000000081526004016101b190610c1a565b60405180910390fd5b60006001800160009054906101000a900473ffffffffffffffffffffffffffffffffffffffff1690508073ffffffffffffffffffffffffffffffffffffffff1663189c8f6a6001600001544760006040518463ffffffff1660e01b815260040161022693929190610d01565b600060405180830381600087803b15801561024057600080fd5b505af1158015610254573d6000803e3d6000fd5b50505050600073ffffffffffffffffffffffffffffffffffffffff16600160030160009054906101000a90505050600160030160009054906101000a900473ffffffffffffffffffffffffffffffffffffffff1673ffffffffffffffffffffffffffffffffffffffff16ff5b60008073ffffffffffffffffffffffffffffffffffffffff16600160030160009054906101000a900473ffffffffffffffffffffffffffffffffffffffff1673ffffffffffffffffffffffffffffffffffffffff1614905090565b600160020160009054906101000a900473ffffffffffffffffffffffffffffffffffffffff1673ffffffffffffffffffffffffffffffffffffffff163373ffffffffffffffffffffffffffffffffffffffff16146103ae576040517f08c379a00000000000000000000000000000000000000000000000000000000081526004016103a590610bfa565b60405180910390fd5b6103b66102c0565b156103f6576040517f08c379a00000000000000000000000000000000000000000000000000000000081526004016103ed90610bda565b60405180910390fd5b600160050160029054906101000a900460ff1660ff1660016006018054905010610455576040517f08c379a000000000000000000000000000000000000000000000000000000000815260040161044c90610bba565b60405180910390fd5b6064816104629190610e2a565b60ff16600160050160009054906101000a900460ff16600160050160019054906101000a900460ff166104959190610e2a565b60ff1611156104ec576001600601600090806001815401808255809150506001900390600052602060002090602091828204019190069091909190916101000a81548160ff021916908360ff160217905550610536565b6001600601600190806001815401808255809150506001900390600052602060002090602091828204019190069091909190916101000a81548160ff021916908360ff1602179055505b600160050160029054906101000a900460ff1660ff1660016006018054905014156105de576105dd60016006018054806020026020016040519081016040528092919081815260200182805480156105d357602002820191906000526020600020906000905b82829054906101000a900460ff1660ff168152602001906001019060208260000104928301926001038202915080841161059c5790505b5050505050610842565b5b50565b60018060000154908060010160009054906101000a900473ffffffffffffffffffffffffffffffffffffffff16908060020160009054906101000a900473ffffffffffffffffffffffffffffffffffffffff16908060030160009054906101000a900473ffffffffffffffffffffffffffffffffffffffff16908060040154908060050160009054906101000a900460ff16908060050160019054906101000a900460ff16908060050160029054906101000a900460ff16905088565b60008054906101000a900473ffffffffffffffffffffffffffffffffffffffff1681565b600073ffffffffffffffffffffffffffffffffffffffff16600160030160009054906101000a900473ffffffffffffffffffffffffffffffffffffffff1673ffffffffffffffffffffffffffffffffffffffff1614610756576040517f08c379a000000000000000000000000000000000000000000000000000000000815260040161074d90610c3a565b60405180910390fd5b33600160030160006101000a81548173ffffffffffffffffffffffffffffffffffffffff021916908373ffffffffffffffffffffffffffffffffffffffff1602179055503460016004018190555060006001800160009054906101000a900473ffffffffffffffffffffffffffffffffffffffff1690508073ffffffffffffffffffffffffffffffffffffffff1663963c8f93600160000154476040518363ffffffff1660e01b815260040161080d929190610cd8565b600060405180830381600087803b15801561082757600080fd5b505af115801561083b573d6000803e3d6000fd5b5050505050565b6000805b82518110156108b357828181518110610888577f4e487b7100000000000000000000000000000000000000000000000000000000600052603260045260246000fd5b602002602001015160ff168261089e9190610d49565b915080806108ab90610eba565b915050610846565b506000600160050160029054906101000a900460ff1660ff16826001600401546108dd9190610dd0565b6108e79190610d9f565b9050600160020160009054906101000a900473ffffffffffffffffffffffffffffffffffffffff1673ffffffffffffffffffffffffffffffffffffffff166108fc829081150290604051600060405180830381858888f19350505050158015610954573d6000803e3d6000fd5b5060006001800160009054906101000a900473ffffffffffffffffffffffffffffffffffffffff1690508073ffffffffffffffffffffffffffffffffffffffff1663189c8f6a6001600001544760016040518463ffffffff1660e01b81526004016109c193929190610d01565b600060405180830381600087803b1580156109db57600080fd5b505af11580156109ef573d6000803e3d6000fd5b50505050600073ffffffffffffffffffffffffffffffffffffffff16600160030160009054906101000a90505050600160030160009054906101000a900473ffffffffffffffffffffffffffffffffffffffff1673ffffffffffffffffffffffffffffffffffffffff16ff5b600081359050610a6a8161102e565b92915050565b600060208284031215610a8257600080fd5b6000610a9084828501610a5b565b91505092915050565b610aa281610e65565b82525050565b610ab181610e77565b82525050565b6000610ac4601483610d38565b9150610acf82610f61565b602082019050919050565b6000610ae7601683610d38565b9150610af282610f8a565b602082019050919050565b6000610b0a601983610d38565b9150610b1582610fb3565b602082019050919050565b6000610b2d601883610d38565b9150610b3882610fdc565b602082019050919050565b6000610b50601283610d38565b9150610b5b82611005565b602082019050919050565b610b6f81610ea3565b82525050565b610b7e81610ead565b82525050565b6000602082019050610b996000830184610a99565b92915050565b6000602082019050610bb46000830184610aa8565b92915050565b60006020820190508181036000830152610bd381610ab7565b9050919050565b60006020820190508181036000830152610bf381610ada565b9050919050565b60006020820190508181036000830152610c1381610afd565b9050919050565b60006020820190508181036000830152610c3381610b20565b9050919050565b60006020820190508181036000830152610c5381610b43565b9050919050565b600061010082019050610c70600083018b610b66565b610c7d602083018a610a99565b610c8a6040830189610a99565b610c976060830188610a99565b610ca46080830187610b66565b610cb160a0830186610b75565b610cbe60c0830185610b75565b610ccb60e0830184610b75565b9998505050505050505050565b6000604082019050610ced6000830185610b66565b610cfa6020830184610b66565b9392505050565b6000606082019050610d166000830186610b66565b610d236020830185610b66565b610d306040830184610aa8565b949350505050565b600082825260208201905092915050565b6000610d5482610ea3565b9150610d5f83610ea3565b9250827fffffffffffffffffffffffffffffffffffffffffffffffffffffffffffffffff03821115610d9457610d93610f03565b5b828201905092915050565b6000610daa82610ea3565b9150610db583610ea3565b925082610dc557610dc4610f32565b5b828204905092915050565b6000610ddb82610ea3565b9150610de683610ea3565b9250817fffffffffffffffffffffffffffffffffffffffffffffffffffffffffffffffff0483118215151615610e1f57610e1e610f03565b5b828202905092915050565b6000610e3582610ead565b9150610e4083610ead565b92508160ff0483118215151615610e5a57610e59610f03565b5b828202905092915050565b6000610e7082610e83565b9050919050565b60008115159050919050565b600073ffffffffffffffffffffffffffffffffffffffff82169050919050565b6000819050919050565b600060ff82169050919050565b6000610ec582610ea3565b91507fffffffffffffffffffffffffffffffffffffffffffffffffffffffffffffffff821415610ef857610ef7610f03565b5b600182019050919050565b7f4e487b7100000000000000000000000000000000000000000000000000000000600052601160045260246000fd5b7f4e487b7100000000000000000000000000000000000000000000000000000000600052601260045260246000fd5b7f44617461206c656e677468206578636565646564000000000000000000000000600082015250565b7f436f6e7472616374206973207465726d696e6174656400000000000000000000600082015250565b7f4f6e6c7920706172656e742063616e2063616c6c207468697300000000000000600082015250565b7f4f6e6c79206f776e65722063616e2063616c6c20746869730000000000000000600082015250565b7f416c726561647920737562736372696265640000000000000000000000000000600082015250565b61103781610ead565b811461104257600080fd5b5056fea2646970667358221220b5a55bebdbc6d60d503c8cccb7bcd8810c7b129af50110ff1ac2e8f23fd667a664736f6c63430008040033",
  "linkReferences": {},
  "deployedLinkReferences": {}
}