{
  "_format": "hh-sol-artifact-1",
  "contractName": "ChildContract",
  "sourceName": "contracts/SmartContract_SLA.sol",
  "abi": [
    {
      "inputs": [
        {
          "internalType": "uint256",
          "name": "index",
          "type": "uint256"
        },
        {
          "internalType": "address",
          "name": "parentAddress",
          "type": "address"
        },
        {
          "internalType": "uint8",
          "name": "_serviceAvailabilityAgreement",
          "type": "uint8"
        },
        {
          "internalType": "uint8",
          "name": "_allocatedVcpus",
          "type": "uint8"
        },
        {
          "internalType": "uint8",
          "name": "_monitoringPeriod",
          "type": "uint8"
        }
      ],
      "stateMutability": "nonpayable",
      "type": "constructor"
    },
    {
      "inputs": [
        {
          "internalType": "uint256",
          "name": "data",
          "type": "uint256"
        }
      ],
      "name": "addUsageData",
      "outputs": [],
      "stateMutability": "nonpayable",
      "type": "function"
    },
    {
      "inputs": [],
      "name": "contractState",
      "outputs": [
        {
          "internalType": "uint256",
          "name": "index",
          "type": "uint256"
        },
        {
          "internalType": "address",
          "name": "parentContract",
          "type": "address"
        },
        {
          "internalType": "address",
          "name": "providerWallet",
          "type": "address"
        },
        {
          "internalType": "address",
          "name": "customerWallet",
          "type": "address"
        },
        {
          "internalType": "uint256",
          "name": "subscriptionAmount",
          "type": "uint256"
        },
        {
          "internalType": "uint8",
          "name": "serviceAvailabilityAgreement",
          "type": "uint8"
        },
        {
          "internalType": "uint8",
          "name": "allocatedVcpus",
          "type": "uint8"
        },
        {
          "internalType": "uint8",
          "name": "monitoringPeriod",
          "type": "uint8"
        }
      ],
      "stateMutability": "view",
      "type": "function"
    },
    {
      "inputs": [],
      "name": "isContractTerminated",
      "outputs": [
        {
          "internalType": "bool",
          "name": "",
          "type": "bool"
        }
      ],
      "stateMutability": "view",
      "type": "function"
    },
    {
      "inputs": [],
      "name": "owner",
      "outputs": [
        {
          "internalType": "address",
          "name": "",
          "type": "address"
        }
      ],
      "stateMutability": "view",
      "type": "function"
    },
    {
      "inputs": [],
      "name": "subscribe",
      "outputs": [],
      "stateMutability": "payable",
      "type": "function"
    },
    {
      "inputs": [],
      "name": "terminate",
      "outputs": [],
      "stateMutability": "nonpayable",
      "type": "function"
    }
  ],
  "bytecode": "0x60806040523480156200001157600080fd5b506040516200159438038062001594833981810160405281019062000037919062000423565b336000806101000a81548173ffffffffffffffffffffffffffffffffffffffff021916908373ffffffffffffffffffffffffffffffffffffffff16021790555060405180610120016040528086815260200160008054906101000a900473ffffffffffffffffffffffffffffffffffffffff1673ffffffffffffffffffffffffffffffffffffffff1681526020018573ffffffffffffffffffffffffffffffffffffffff168152602001600073ffffffffffffffffffffffffffffffffffffffff168152602001600081526020018460ff1681526020018360ff1681526020018260ff168152602001600067ffffffffffffffff81111562000162577f4e487b7100000000000000000000000000000000000000000000000000000000600052604160045260246000fd5b604051908082528060200260200182016040528015620001915781602001602082028036833780820191505090505b5081525060016000820151816000015560208201518160010160006101000a81548173ffffffffffffffffffffffffffffffffffffffff021916908373ffffffffffffffffffffffffffffffffffffffff16021790555060408201518160020160006101000a81548173ffffffffffffffffffffffffffffffffffffffff021916908373ffffffffffffffffffffffffffffffffffffffff16021790555060608201518160030160006101000a81548173ffffffffffffffffffffffffffffffffffffffff021916908373ffffffffffffffffffffffffffffffffffffffff1602179055506080820151816004015560a08201518160050160006101000a81548160ff021916908360ff16021790555060c08201518160050160016101000a81548160ff021916908360ff16021790555060e08201518160050160026101000a81548160ff021916908360ff1602179055506101008201518160060190805190602001906200030292919062000311565b5090505050505050506200053e565b82805482825590600052602060002090601f01602090048101928215620003ac5791602002820160005b838211156200037b57835183826101000a81548160ff021916908360ff16021790555092602001926001016020816000010492830192600103026200033b565b8015620003aa5782816101000a81549060ff02191690556001016020816000010492830192600103026200037b565b505b509050620003bb9190620003bf565b5090565b5b80821115620003da576000816000905550600101620003c0565b5090565b600081519050620003ef81620004f0565b92915050565b60008151905062000406816200050a565b92915050565b6000815190506200041d8162000524565b92915050565b600080600080600060a086880312156200043c57600080fd5b60006200044c88828901620003f5565b95505060206200045f88828901620003de565b945050604062000472888289016200040c565b935050606062000485888289016200040c565b925050608062000498888289016200040c565b9150509295509295909350565b6000620004b282620004b9565b9050919050565b600073ffffffffffffffffffffffffffffffffffffffff82169050919050565b6000819050919050565b600060ff82169050919050565b620004fb81620004a5565b81146200050757600080fd5b50565b6200051581620004d9565b81146200052157600080fd5b50565b6200052f81620004e3565b81146200053b57600080fd5b50565b611046806200054e6000396000f3fe6080604052600436106100555760003560e01c80630c08bf881461005a57806320423385146100715780632c05a2f11461009a57806385209ee0146100c55780638da5cb5b146100f75780638f449a0514610122575b600080fd5b34801561006657600080fd5b5061006f61012c565b005b34801561007d57600080fd5b5061009860048036038101906100939190610a76565b6102c0565b005b3480156100a657600080fd5b506100af61058c565b6040516100bc9190610ba5565b60405180910390f35b3480156100d157600080fd5b506100da6105e7565b6040516100ee989796959493929190610c60565b60405180910390f35b34801561010357600080fd5b5061010c6106a4565b6040516101199190610b8a565b60405180910390f35b61012a6106c8565b005b60008054906101000a900473ffffffffffffffffffffffffffffffffffffffff1673ffffffffffffffffffffffffffffffffffffffff163373ffffffffffffffffffffffffffffffffffffffff16146101ba576040517f08c379a00000000000000000000000000000000000000000000000000000000081526004016101b190610c20565b60405180910390fd5b60006001800160009054906101000a900473ffffffffffffffffffffffffffffffffffffffff1690508073ffffffffffffffffffffffffffffffffffffffff1663189c8f6a6001600001544760006040518463ffffffff1660e01b815260040161022693929190610d07565b600060405180830381600087803b15801561024057600080fd5b505af1158015610254573d6000803e3d6000fd5b50505050600073ffffffffffffffffffffffffffffffffffffffff16600160030160009054906101000a90505050600160030160009054906101000a900473ffffffffffffffffffffffffffffffffffffffff1673ffffffffffffffffffffffffffffffffffffffff16ff5b600160020160009054906101000a900473ffffffffffffffffffffffffffffffffffffffff1673ffffffffffffffffffffffffffffffffffffffff163373ffffffffffffffffffffffffffffffffffffffff1614610353576040517f08c379a000000000000000000000000000000000000000000000000000000000815260040161034a90610c00565b60405180910390fd5b61035b61058c565b1561039b576040517f08c379a000000000000000000000000000000000000000000000000000000000815260040161039290610be0565b60405180910390fd5b600160050160029054906101000a900460ff1660ff16600160060180549050106103fa576040517f08c379a00000000000000000000000000000000000000000000000000000000081526004016103f190610bc0565b60405180910390fd5b6000600160050160009054906101000a900460ff1660ff16600160050160019054906101000a900460ff1660ff166104329190610dd6565b90506064826104419190610dd6565b811115610496576001600601600090806001815401808255809150506001900390600052602060002090602091828204019190069091909190916101000a81548160ff021916908360ff1602179055506104e0565b6001600601600190806001815401808255809150506001900390600052602060002090602091828204019190069091909190916101000a81548160ff021916908360ff1602179055505b600160050160029054906101000a900460ff1660ff16600160060180549050141561058857610587600160060180548060200260200160405190810160405280929190818152602001828054801561057d57602002820191906000526020600020906000905b82829054906101000a900460ff1660ff16815260200190600101906020826000010492830192600103820291508084116105465790505b5050505050610848565b5b5050565b60008073ffffffffffffffffffffffffffffffffffffffff16600160030160009054906101000a900473ffffffffffffffffffffffffffffffffffffffff1673ffffffffffffffffffffffffffffffffffffffff1614905090565b60018060000154908060010160009054906101000a900473ffffffffffffffffffffffffffffffffffffffff16908060020160009054906101000a900473ffffffffffffffffffffffffffffffffffffffff16908060030160009054906101000a900473ffffffffffffffffffffffffffffffffffffffff16908060040154908060050160009054906101000a900460ff16908060050160019054906101000a900460ff16908060050160029054906101000a900460ff16905088565b60008054906101000a900473ffffffffffffffffffffffffffffffffffffffff1681565b600073ffffffffffffffffffffffffffffffffffffffff16600160030160009054906101000a900473ffffffffffffffffffffffffffffffffffffffff1673ffffffffffffffffffffffffffffffffffffffff161461075c576040517f08c379a000000000000000000000000000000000000000000000000000000000815260040161075390610c40565b60405180910390fd5b33600160030160006101000a81548173ffffffffffffffffffffffffffffffffffffffff021916908373ffffffffffffffffffffffffffffffffffffffff1602179055503460016004018190555060006001800160009054906101000a900473ffffffffffffffffffffffffffffffffffffffff1690508073ffffffffffffffffffffffffffffffffffffffff1663963c8f93600160000154476040518363ffffffff1660e01b8152600401610813929190610cde565b600060405180830381600087803b15801561082d57600080fd5b505af1158015610841573d6000803e3d6000fd5b5050505050565b6000805b82518110156108b95782818151811061088e577f4e487b7100000000000000000000000000000000000000000000000000000000600052603260045260246000fd5b602002602001015160ff16826108a49190610d4f565b915080806108b190610e85565b91505061084c565b506000600160050160029054906101000a900460ff1660ff16826001600401546108e39190610dd6565b6108ed9190610da5565b9050600160020160009054906101000a900473ffffffffffffffffffffffffffffffffffffffff1673ffffffffffffffffffffffffffffffffffffffff166108fc829081150290604051600060405180830381858888f1935050505015801561095a573d6000803e3d6000fd5b5060006001800160009054906101000a900473ffffffffffffffffffffffffffffffffffffffff1690508073ffffffffffffffffffffffffffffffffffffffff1663189c8f6a6001600001544760016040518463ffffffff1660e01b81526004016109c793929190610d07565b600060405180830381600087803b1580156109e157600080fd5b505af11580156109f5573d6000803e3d6000fd5b50505050600073ffffffffffffffffffffffffffffffffffffffff16600160030160009054906101000a90505050600160030160009054906101000a900473ffffffffffffffffffffffffffffffffffffffff1673ffffffffffffffffffffffffffffffffffffffff16ff5b600081359050610a7081610ff9565b92915050565b600060208284031215610a8857600080fd5b6000610a9684828501610a61565b91505092915050565b610aa881610e30565b82525050565b610ab781610e42565b82525050565b6000610aca601483610d3e565b9150610ad582610f2c565b602082019050919050565b6000610aed601683610d3e565b9150610af882610f55565b602082019050919050565b6000610b10601983610d3e565b9150610b1b82610f7e565b602082019050919050565b6000610b33601883610d3e565b9150610b3e82610fa7565b602082019050919050565b6000610b56601283610d3e565b9150610b6182610fd0565b602082019050919050565b610b7581610e6e565b82525050565b610b8481610e78565b82525050565b6000602082019050610b9f6000830184610a9f565b92915050565b6000602082019050610bba6000830184610aae565b92915050565b60006020820190508181036000830152610bd981610abd565b9050919050565b60006020820190508181036000830152610bf981610ae0565b9050919050565b60006020820190508181036000830152610c1981610b03565b9050919050565b60006020820190508181036000830152610c3981610b26565b9050919050565b60006020820190508181036000830152610c5981610b49565b9050919050565b600061010082019050610c76600083018b610b6c565b610c83602083018a610a9f565b610c906040830189610a9f565b610c9d6060830188610a9f565b610caa6080830187610b6c565b610cb760a0830186610b7b565b610cc460c0830185610b7b565b610cd160e0830184610b7b565b9998505050505050505050565b6000604082019050610cf36000830185610b6c565b610d006020830184610b6c565b9392505050565b6000606082019050610d1c6000830186610b6c565b610d296020830185610b6c565b610d366040830184610aae565b949350505050565b600082825260208201905092915050565b6000610d5a82610e6e565b9150610d6583610e6e565b9250827fffffffffffffffffffffffffffffffffffffffffffffffffffffffffffffffff03821115610d9a57610d99610ece565b5b828201905092915050565b6000610db082610e6e565b9150610dbb83610e6e565b925082610dcb57610dca610efd565b5b828204905092915050565b6000610de182610e6e565b9150610dec83610e6e565b9250817fffffffffffffffffffffffffffffffffffffffffffffffffffffffffffffffff0483118215151615610e2557610e24610ece565b5b828202905092915050565b6000610e3b82610e4e565b9050919050565b60008115159050919050565b600073ffffffffffffffffffffffffffffffffffffffff82169050919050565b6000819050919050565b600060ff82169050919050565b6000610e9082610e6e565b91507fffffffffffffffffffffffffffffffffffffffffffffffffffffffffffffffff821415610ec357610ec2610ece565b5b600182019050919050565b7f4e487b7100000000000000000000000000000000000000000000000000000000600052601160045260246000fd5b7f4e487b7100000000000000000000000000000000000000000000000000000000600052601260045260246000fd5b7f44617461206c656e677468206578636565646564000000000000000000000000600082015250565b7f436f6e7472616374206973207465726d696e6174656400000000000000000000600082015250565b7f4f6e6c7920706172656e742063616e2063616c6c207468697300000000000000600082015250565b7f4f6e6c79206f776e65722063616e2063616c6c20746869730000000000000000600082015250565b7f416c726561647920737562736372696265640000000000000000000000000000600082015250565b61100281610e6e565b811461100d57600080fd5b5056fea26469706673582212200ee4892d289bc49a9b58218a0d8dfaa31a6a8e2407812aee664730b8859ce5a764736f6c63430008040033",
  "linkReferences": {},
  "deployedLinkReferences": {}
}