{
  "_format": "hh-sol-artifact-1",
  "contractName": "ParentContract",
  "sourceName": "contracts/SmartContract_SLA.sol",
  "abi": [
    {
      "inputs": [],
      "stateMutability": "nonpayable",
      "type": "constructor"
    },
    {
      "inputs": [
        {
          "internalType": "uint256",
          "name": "index",
          "type": "uint256"
        },
        {
          "internalType": "uint256",
          "name": "compensation",
          "type": "uint256"
        },
        {
          "internalType": "bool",
          "name": "completed",
          "type": "bool"
        }
      ],
      "name": "childCompleted",
      "outputs": [],
      "stateMutability": "nonpayable",
      "type": "function"
    },
    {
      "inputs": [
        {
          "internalType": "uint256",
          "name": "",
          "type": "uint256"
        }
      ],
      "name": "childContracts",
      "outputs": [
        {
          "internalType": "uint256",
          "name": "Id",
          "type": "uint256"
        },
        {
          "internalType": "string",
          "name": "customerId",
          "type": "string"
        },
        {
          "internalType": "address",
          "name": "childContract",
          "type": "address"
        },
        {
          "internalType": "uint256",
          "name": "createdDateTime",
          "type": "uint256"
        },
        {
          "internalType": "uint256",
          "name": "terminatedDateTime",
          "type": "uint256"
        },
        {
          "internalType": "bool",
          "name": "terminated",
          "type": "bool"
        },
        {
          "internalType": "bool",
          "name": "completed",
          "type": "bool"
        },
        {
          "internalType": "bool",
          "name": "subscribed",
          "type": "bool"
        },
        {
          "internalType": "uint256",
          "name": "compensation",
          "type": "uint256"
        },
        {
          "internalType": "uint256",
          "name": "subscription",
          "type": "uint256"
        },
        {
          "internalType": "uint256",
          "name": "serviceAvailabilityAgreement",
          "type": "uint256"
        }
      ],
      "stateMutability": "view",
      "type": "function"
    },
    {
      "inputs": [
        {
          "internalType": "uint256",
          "name": "index",
          "type": "uint256"
        },
        {
          "internalType": "uint256",
          "name": "subscription",
          "type": "uint256"
        }
      ],
      "name": "childSubscribed",
      "outputs": [],
      "stateMutability": "nonpayable",
      "type": "function"
    },
    {
      "inputs": [
        {
          "internalType": "string",
          "name": "customerId",
          "type": "string"
        },
        {
          "internalType": "uint8",
          "name": "serviceAvailabilityAgreement",
          "type": "uint8"
        },
        {
          "internalType": "uint8",
          "name": "allocatedVcpus",
          "type": "uint8"
        },
        {
          "internalType": "uint8",
          "name": "monitoringPeriod",
          "type": "uint8"
        }
      ],
      "name": "createChildContract",
      "outputs": [],
      "stateMutability": "nonpayable",
      "type": "function"
    },
    {
      "inputs": [
        {
          "internalType": "string",
          "name": "_customerId",
          "type": "string"
        }
      ],
      "name": "getAliveContractsByCustomerId",
      "outputs": [
        {
          "components": [
            {
              "internalType": "uint256",
              "name": "Id",
              "type": "uint256"
            },
            {
              "internalType": "string",
              "name": "customerId",
              "type": "string"
            },
            {
              "internalType": "address",
              "name": "childContract",
              "type": "address"
            },
            {
              "internalType": "uint256",
              "name": "createdDateTime",
              "type": "uint256"
            },
            {
              "internalType": "uint256",
              "name": "terminatedDateTime",
              "type": "uint256"
            },
            {
              "internalType": "bool",
              "name": "terminated",
              "type": "bool"
            },
            {
              "internalType": "bool",
              "name": "completed",
              "type": "bool"
            },
            {
              "internalType": "bool",
              "name": "subscribed",
              "type": "bool"
            },
            {
              "internalType": "uint256",
              "name": "compensation",
              "type": "uint256"
            },
            {
              "internalType": "uint256",
              "name": "subscription",
              "type": "uint256"
            },
            {
              "internalType": "uint256",
              "name": "serviceAvailabilityAgreement",
              "type": "uint256"
            }
          ],
          "internalType": "struct ParentContract.ChildContractInfo[]",
          "name": "",
          "type": "tuple[]"
        }
      ],
      "stateMutability": "view",
      "type": "function"
    },
    {
      "inputs": [],
      "name": "getContractsAlive",
      "outputs": [
        {
          "components": [
            {
              "internalType": "uint256",
              "name": "Id",
              "type": "uint256"
            },
            {
              "internalType": "string",
              "name": "customerId",
              "type": "string"
            },
            {
              "internalType": "address",
              "name": "childContract",
              "type": "address"
            },
            {
              "internalType": "uint256",
              "name": "createdDateTime",
              "type": "uint256"
            },
            {
              "internalType": "uint256",
              "name": "terminatedDateTime",
              "type": "uint256"
            },
            {
              "internalType": "bool",
              "name": "terminated",
              "type": "bool"
            },
            {
              "internalType": "bool",
              "name": "completed",
              "type": "bool"
            },
            {
              "internalType": "bool",
              "name": "subscribed",
              "type": "bool"
            },
            {
              "internalType": "uint256",
              "name": "compensation",
              "type": "uint256"
            },
            {
              "internalType": "uint256",
              "name": "subscription",
              "type": "uint256"
            },
            {
              "internalType": "uint256",
              "name": "serviceAvailabilityAgreement",
              "type": "uint256"
            }
          ],
          "internalType": "struct ParentContract.ChildContractInfo[]",
          "name": "",
          "type": "tuple[]"
        }
      ],
      "stateMutability": "view",
      "type": "function"
    },
    {
      "inputs": [],
      "name": "getContractsTerminated",
      "outputs": [
        {
          "components": [
            {
              "internalType": "uint256",
              "name": "Id",
              "type": "uint256"
            },
            {
              "internalType": "string",
              "name": "customerId",
              "type": "string"
            },
            {
              "internalType": "address",
              "name": "childContract",
              "type": "address"
            },
            {
              "internalType": "uint256",
              "name": "createdDateTime",
              "type": "uint256"
            },
            {
              "internalType": "uint256",
              "name": "terminatedDateTime",
              "type": "uint256"
            },
            {
              "internalType": "bool",
              "name": "terminated",
              "type": "bool"
            },
            {
              "internalType": "bool",
              "name": "completed",
              "type": "bool"
            },
            {
              "internalType": "bool",
              "name": "subscribed",
              "type": "bool"
            },
            {
              "internalType": "uint256",
              "name": "compensation",
              "type": "uint256"
            },
            {
              "internalType": "uint256",
              "name": "subscription",
              "type": "uint256"
            },
            {
              "internalType": "uint256",
              "name": "serviceAvailabilityAgreement",
              "type": "uint256"
            }
          ],
          "internalType": "struct ParentContract.ChildContractInfo[]",
          "name": "",
          "type": "tuple[]"
        }
      ],
      "stateMutability": "view",
      "type": "function"
    },
    {
      "inputs": [
        {
          "internalType": "string",
          "name": "_customerId",
          "type": "string"
        }
      ],
      "name": "getTerminatedContractsByCustomerId",
      "outputs": [
        {
          "components": [
            {
              "internalType": "uint256",
              "name": "Id",
              "type": "uint256"
            },
            {
              "internalType": "string",
              "name": "customerId",
              "type": "string"
            },
            {
              "internalType": "address",
              "name": "childContract",
              "type": "address"
            },
            {
              "internalType": "uint256",
              "name": "createdDateTime",
              "type": "uint256"
            },
            {
              "internalType": "uint256",
              "name": "terminatedDateTime",
              "type": "uint256"
            },
            {
              "internalType": "bool",
              "name": "terminated",
              "type": "bool"
            },
            {
              "internalType": "bool",
              "name": "completed",
              "type": "bool"
            },
            {
              "internalType": "bool",
              "name": "subscribed",
              "type": "bool"
            },
            {
              "internalType": "uint256",
              "name": "compensation",
              "type": "uint256"
            },
            {
              "internalType": "uint256",
              "name": "subscription",
              "type": "uint256"
            },
            {
              "internalType": "uint256",
              "name": "serviceAvailabilityAgreement",
              "type": "uint256"
            }
          ],
          "internalType": "struct ParentContract.ChildContractInfo[]",
          "name": "",
          "type": "tuple[]"
        }
      ],
      "stateMutability": "view",
      "type": "function"
    },
    {
      "inputs": [],
      "name": "owner",
      "outputs": [
        {
          "internalType": "address",
          "name": "",
          "type": "address"
        }
      ],
      "stateMutability": "view",
      "type": "function"
    },
    {
      "inputs": [
        {
          "internalType": "uint256",
          "name": "index",
          "type": "uint256"
        }
      ],
      "name": "terminateChildContract",
      "outputs": [],
      "stateMutability": "nonpayable",
      "type": "function"
    }
  ],
  "bytecode": "0x608060405234801561001057600080fd5b50336000806101000a81548173ffffffffffffffffffffffffffffffffffffffff021916908373ffffffffffffffffffffffffffffffffffffffff160217905550613e72806100606000396000f3fe60806040523480156200001157600080fd5b5060043610620000ac5760003560e01c806395bc9928116200006f57806395bc9928146200017f578063963c8f9314620001bf578063a3708a3814620001df578063c288c02e14620001ff578063d3eb0264146200022157620000ac565b8063189c8f6a14620000b15780632ca065e114620000d1578063318ba6dd14620001075780637850be1a14620001275780638da5cb5b146200015d575b600080fd5b620000cf6004803603810190620000c9919062002051565b62000243565b005b620000ef6004803603810190620000e9919062001f1a565b620003fc565b604051620000fe9190620023d0565b60405180910390f35b6200012560048036038101906200011f919062001fe4565b620009b9565b005b6200014560048036038101906200013f919062001f1a565b62000ada565b604051620001549190620023d0565b60405180910390f35b6200016762001099565b604051620001769190620023b3565b60405180910390f35b6200019d600480360381019062000197919062001fe4565b620010bd565b604051620001b69b9a9998979695949392919062002473565b60405180910390f35b620001dd6004803603810190620001d7919062002010565b620011ff565b005b620001fd6004803603810190620001f7919062001f5f565b62001302565b005b6200020962001522565b604051620002189190620023d0565b60405180910390f35b6200022b620018f9565b6040516200023a9190620023d0565b60405180910390f35b60018054905083106200028d576040517f08c379a00000000000000000000000000000000000000000000000000000000081526004016200028490620023f4565b60405180910390fd5b4260018481548110620002c9577f4e487b7100000000000000000000000000000000000000000000000000000000600052603260045260246000fd5b90600052602060002090600902016004018190555060018084815481106200031a577f4e487b7100000000000000000000000000000000000000000000000000000000600052603260045260246000fd5b906000526020600020906009020160050160006101000a81548160ff02191690831515021790555080600184815481106200037e577f4e487b7100000000000000000000000000000000000000000000000000000000600052603260045260246000fd5b906000526020600020906009020160050160016101000a81548160ff0219169083151502179055508160018481548110620003e2577f4e487b7100000000000000000000000000000000000000000000000000000000600052603260045260246000fd5b906000526020600020906009020160060181905550505050565b60606000805b6001805490508110156200058857600181815481106200044b577f4e487b7100000000000000000000000000000000000000000000000000000000600052603260045260246000fd5b906000526020600020906009020160050160009054906101000a900460ff1680156200055b57506200055a60018281548110620004b1577f4e487b7100000000000000000000000000000000000000000000000000000000600052603260045260246000fd5b90600052602060002090600902016001018054620004cf90620026a7565b80601f0160208091040260200160405190810160405280929190818152602001828054620004fd90620026a7565b80156200054e5780601f1062000522576101008083540402835291602001916200054e565b820191906000526020600020905b8154815290600101906020018083116200053057829003601f168201915b50505050508562001cd2565b5b15620005725781806200056e9062002713565b9250505b80806200057f9062002713565b91505062000402565b5060008167ffffffffffffffff811115620005cc577f4e487b7100000000000000000000000000000000000000000000000000000000600052604160045260246000fd5b6040519080825280602002602001820160405280156200060957816020015b620005f562001d2f565b815260200190600190039081620005eb5790505b5090506000805b600180549050811015620009ad576001818154811062000659577f4e487b7100000000000000000000000000000000000000000000000000000000600052603260045260246000fd5b906000526020600020906009020160050160009054906101000a900460ff1680156200076957506200076860018281548110620006bf577f4e487b7100000000000000000000000000000000000000000000000000000000600052603260045260246000fd5b90600052602060002090600902016001018054620006dd90620026a7565b80601f01602080910402602001604051908101604052809291908181526020018280546200070b90620026a7565b80156200075c5780601f1062000730576101008083540402835291602001916200075c565b820191906000526020600020905b8154815290600101906020018083116200073e57829003601f168201915b50505050508762001cd2565b5b15620009975760018181548110620007aa577f4e487b7100000000000000000000000000000000000000000000000000000000600052603260045260246000fd5b90600052602060002090600902016040518061016001604052908160008201548152602001600182018054620007e090620026a7565b80601f01602080910402602001604051908101604052809291908181526020018280546200080e90620026a7565b80156200085f5780601f1062000833576101008083540402835291602001916200085f565b820191906000526020600020905b8154815290600101906020018083116200084157829003601f168201915b505050505081526020016002820160009054906101000a900473ffffffffffffffffffffffffffffffffffffffff1673ffffffffffffffffffffffffffffffffffffffff1673ffffffffffffffffffffffffffffffffffffffff16815260200160038201548152602001600482015481526020016005820160009054906101000a900460ff161515151581526020016005820160019054906101000a900460ff161515151581526020016005820160029054906101000a900460ff1615151515815260200160068201548152602001600782015481526020016008820154815250508383815181106200097b577f4e487b7100000000000000000000000000000000000000000000000000000000600052603260045260246000fd5b60200260200101819052508180620009939062002713565b9250505b8080620009a49062002713565b91505062000610565b50819350505050919050565b600180549050811062000a03576040517f08c379a0000000000000000000000000000000000000000000000000000000008152600401620009fa90620023f4565b60405180910390fd5b60006001828154811062000a40577f4e487b7100000000000000000000000000000000000000000000000000000000600052603260045260246000fd5b906000526020600020906009020160020160009054906101000a900473ffffffffffffffffffffffffffffffffffffffff1690508073ffffffffffffffffffffffffffffffffffffffff16630c08bf886040518163ffffffff1660e01b8152600401600060405180830381600087803b15801562000abd57600080fd5b505af115801562000ad2573d6000803e3d6000fd5b505050505050565b60606000805b60018054905081101562000c67576001818154811062000b29577f4e487b7100000000000000000000000000000000000000000000000000000000600052603260045260246000fd5b906000526020600020906009020160050160009054906101000a900460ff1615801562000c3a575062000c396001828154811062000b90577f4e487b7100000000000000000000000000000000000000000000000000000000600052603260045260246000fd5b9060005260206000209060090201600101805462000bae90620026a7565b80601f016020809104026020016040519081016040528092919081815260200182805462000bdc90620026a7565b801562000c2d5780601f1062000c015761010080835404028352916020019162000c2d565b820191906000526020600020905b81548152906001019060200180831162000c0f57829003601f168201915b50505050508562001cd2565b5b1562000c5157818062000c4d9062002713565b9250505b808062000c5e9062002713565b91505062000ae0565b5060008167ffffffffffffffff81111562000cab577f4e487b7100000000000000000000000000000000000000000000000000000000600052604160045260246000fd5b60405190808252806020026020018201604052801562000ce857816020015b62000cd462001d2f565b81526020019060019003908162000cca5790505b5090506000805b6001805490508110156200108d576001818154811062000d38577f4e487b7100000000000000000000000000000000000000000000000000000000600052603260045260246000fd5b906000526020600020906009020160050160009054906101000a900460ff1615801562000e49575062000e486001828154811062000d9f577f4e487b7100000000000000000000000000000000000000000000000000000000600052603260045260246000fd5b9060005260206000209060090201600101805462000dbd90620026a7565b80601f016020809104026020016040519081016040528092919081815260200182805462000deb90620026a7565b801562000e3c5780601f1062000e105761010080835404028352916020019162000e3c565b820191906000526020600020905b81548152906001019060200180831162000e1e57829003601f168201915b50505050508762001cd2565b5b1562001077576001818154811062000e8a577f4e487b7100000000000000000000000000000000000000000000000000000000600052603260045260246000fd5b9060005260206000209060090201604051806101600160405290816000820154815260200160018201805462000ec090620026a7565b80601f016020809104026020016040519081016040528092919081815260200182805462000eee90620026a7565b801562000f3f5780601f1062000f135761010080835404028352916020019162000f3f565b820191906000526020600020905b81548152906001019060200180831162000f2157829003601f168201915b505050505081526020016002820160009054906101000a900473ffffffffffffffffffffffffffffffffffffffff1673ffffffffffffffffffffffffffffffffffffffff1673ffffffffffffffffffffffffffffffffffffffff16815260200160038201548152602001600482015481526020016005820160009054906101000a900460ff161515151581526020016005820160019054906101000a900460ff161515151581526020016005820160029054906101000a900460ff1615151515815260200160068201548152602001600782015481526020016008820154815250508383815181106200105b577f4e487b7100000000000000000000000000000000000000000000000000000000600052603260045260246000fd5b60200260200101819052508180620010739062002713565b9250505b8080620010849062002713565b91505062000cef565b50819350505050919050565b60008054906101000a900473ffffffffffffffffffffffffffffffffffffffff1681565b60018181548110620010ce57600080fd5b9060005260206000209060090201600091509050806000015490806001018054620010f990620026a7565b80601f01602080910402602001604051908101604052809291908181526020018280546200112790620026a7565b8015620011785780601f106200114c5761010080835404028352916020019162001178565b820191906000526020600020905b8154815290600101906020018083116200115a57829003601f168201915b5050505050908060020160009054906101000a900473ffffffffffffffffffffffffffffffffffffffff16908060030154908060040154908060050160009054906101000a900460ff16908060050160019054906101000a900460ff16908060050160029054906101000a900460ff1690806006015490806007015490806008015490508b565b600180549050821062001249576040517f08c379a00000000000000000000000000000000000000000000000000000000081526004016200124090620023f4565b60405180910390fd5b806001838154811062001285577f4e487b7100000000000000000000000000000000000000000000000000000000600052603260045260246000fd5b9060005260206000209060090201600701819055506001808381548110620012d6577f4e487b7100000000000000000000000000000000000000000000000000000000600052603260045260246000fd5b906000526020600020906009020160050160026101000a81548160ff0219169083151502179055505050565b6000600180549050905060008160008054906101000a900473ffffffffffffffffffffffffffffffffffffffff16868686604051620013419062001da5565b6200135195949392919062002416565b604051809103906000f0801580156200136e573d6000803e3d6000fd5b50905060006040518061016001604052808481526020018881526020018373ffffffffffffffffffffffffffffffffffffffff1681526020014281526020016000815260200160001515815260200160001515815260200160001515815260200160008152602001600081526020018760ff16815250905060018190806001815401808255809150506001900390600052602060002090600902016000909190919091506000820151816000015560208201518160010190805190602001906200143a92919062001db3565b5060408201518160020160006101000a81548173ffffffffffffffffffffffffffffffffffffffff021916908373ffffffffffffffffffffffffffffffffffffffff160217905550606082015181600301556080820151816004015560a08201518160050160006101000a81548160ff02191690831515021790555060c08201518160050160016101000a81548160ff02191690831515021790555060e08201518160050160026101000a81548160ff021916908315150217905550610100820151816006015561012082015181600701556101408201518160080155505050505050505050565b60606000805b600180549050811015620015bc576001818154811062001571577f4e487b7100000000000000000000000000000000000000000000000000000000600052603260045260246000fd5b906000526020600020906009020160050160009054906101000a900460ff16620015a6578180620015a29062002713565b9250505b8080620015b39062002713565b91505062001528565b5060008167ffffffffffffffff81111562001600577f4e487b7100000000000000000000000000000000000000000000000000000000600052604160045260246000fd5b6040519080825280602002602001820160405280156200163d57816020015b6200162962001d2f565b8152602001906001900390816200161f5790505b5090506000805b600180549050811015620018ef57600181815481106200168d577f4e487b7100000000000000000000000000000000000000000000000000000000600052603260045260246000fd5b906000526020600020906009020160050160009054906101000a900460ff16620018d95760018181548110620016ec577f4e487b7100000000000000000000000000000000000000000000000000000000600052603260045260246000fd5b906000526020600020906009020160405180610160016040529081600082015481526020016001820180546200172290620026a7565b80601f01602080910402602001604051908101604052809291908181526020018280546200175090620026a7565b8015620017a15780601f106200177557610100808354040283529160200191620017a1565b820191906000526020600020905b8154815290600101906020018083116200178357829003601f168201915b505050505081526020016002820160009054906101000a900473ffffffffffffffffffffffffffffffffffffffff1673ffffffffffffffffffffffffffffffffffffffff1673ffffffffffffffffffffffffffffffffffffffff16815260200160038201548152602001600482015481526020016005820160009054906101000a900460ff161515151581526020016005820160019054906101000a900460ff161515151581526020016005820160029054906101000a900460ff161515151581526020016006820154815260200160078201548152602001600882015481525050838381518110620018bd577f4e487b7100000000000000000000000000000000000000000000000000000000600052603260045260246000fd5b60200260200101819052508180620018d59062002713565b9250505b8080620018e69062002713565b91505062001644565b5081935050505090565b60606000805b60018054905081101562001994576001818154811062001948577f4e487b7100000000000000000000000000000000000000000000000000000000600052603260045260246000fd5b906000526020600020906009020160050160009054906101000a900460ff16156200197e5781806200197a9062002713565b9250505b80806200198b9062002713565b915050620018ff565b5060008167ffffffffffffffff811115620019d8577f4e487b7100000000000000000000000000000000000000000000000000000000600052604160045260246000fd5b60405190808252806020026020018201604052801562001a1557816020015b62001a0162001d2f565b815260200190600190039081620019f75790505b5090506000805b60018054905081101562001cc8576001818154811062001a65577f4e487b7100000000000000000000000000000000000000000000000000000000600052603260045260246000fd5b906000526020600020906009020160050160009054906101000a900460ff161562001cb2576001818154811062001ac5577f4e487b7100000000000000000000000000000000000000000000000000000000600052603260045260246000fd5b9060005260206000209060090201604051806101600160405290816000820154815260200160018201805462001afb90620026a7565b80601f016020809104026020016040519081016040528092919081815260200182805462001b2990620026a7565b801562001b7a5780601f1062001b4e5761010080835404028352916020019162001b7a565b820191906000526020600020905b81548152906001019060200180831162001b5c57829003601f168201915b505050505081526020016002820160009054906101000a900473ffffffffffffffffffffffffffffffffffffffff1673ffffffffffffffffffffffffffffffffffffffff1673ffffffffffffffffffffffffffffffffffffffff16815260200160038201548152602001600482015481526020016005820160009054906101000a900460ff161515151581526020016005820160019054906101000a900460ff161515151581526020016005820160029054906101000a900460ff16151515158152602001600682015481526020016007820154815260200160088201548152505083838151811062001c96577f4e487b7100000000000000000000000000000000000000000000000000000000600052603260045260246000fd5b6020026020010181905250818062001cae9062002713565b9250505b808062001cbf9062002713565b91505062001a1c565b5081935050505090565b60008160405160200162001ce791906200239a565b604051602081830303815290604052805190602001208360405160200162001d1091906200239a565b6040516020818303038152906040528051906020012014905092915050565b6040518061016001604052806000815260200160608152602001600073ffffffffffffffffffffffffffffffffffffffff16815260200160008152602001600081526020016000151581526020016000151581526020016000151581526020016000815260200160008152602001600081525090565b6115c6806200287783390190565b82805462001dc190620026a7565b90600052602060002090601f01602090048101928262001de5576000855562001e31565b82601f1062001e0057805160ff191683800117855562001e31565b8280016001018555821562001e31579182015b8281111562001e3057825182559160200191906001019062001e13565b5b50905062001e40919062001e44565b5090565b5b8082111562001e5f57600081600090555060010162001e45565b5090565b600062001e7a62001e748462002564565b6200253b565b90508281526020810184848401111562001e9357600080fd5b62001ea084828562002662565b509392505050565b60008135905062001eb98162002828565b92915050565b600082601f83011262001ed157600080fd5b813562001ee384826020860162001e63565b91505092915050565b60008135905062001efd8162002842565b92915050565b60008135905062001f14816200285c565b92915050565b60006020828403121562001f2d57600080fd5b600082013567ffffffffffffffff81111562001f4857600080fd5b62001f568482850162001ebf565b91505092915050565b6000806000806080858703121562001f7657600080fd5b600085013567ffffffffffffffff81111562001f9157600080fd5b62001f9f8782880162001ebf565b945050602062001fb28782880162001f03565b935050604062001fc58782880162001f03565b925050606062001fd88782880162001f03565b91505092959194509250565b60006020828403121562001ff757600080fd5b6000620020078482850162001eec565b91505092915050565b600080604083850312156200202457600080fd5b6000620020348582860162001eec565b9250506020620020478582860162001eec565b9150509250929050565b6000806000606084860312156200206757600080fd5b6000620020778682870162001eec565b93505060206200208a8682870162001eec565b92505060406200209d8682870162001ea8565b9150509250925092565b6000620020b5838362002262565b905092915050565b620020c8816200260b565b82525050565b620020d9816200260b565b82525050565b6000620020ec82620025aa565b620020f88185620025cd565b9350836020820285016200210c856200259a565b8060005b858110156200214e57848403895281516200212c8582620020a7565b94506200213983620025c0565b925060208a0199505060018101905062002110565b50829750879550505050505092915050565b6200216b816200261f565b82525050565b6200217c816200261f565b82525050565b60006200218f82620025b5565b6200219b8185620025de565b9350620021ad81856020860162002671565b620021b881620027ee565b840191505092915050565b6000620021d082620025b5565b620021dc8185620025ef565b9350620021ee81856020860162002671565b620021f981620027ee565b840191505092915050565b60006200221182620025b5565b6200221d818562002600565b93506200222f81856020860162002671565b80840191505092915050565b60006200224a600d83620025ef565b91506200225782620027ff565b602082019050919050565b6000610160830160008301516200227d600086018262002367565b506020830151848203602086015262002297828262002182565b9150506040830151620022ae6040860182620020bd565b506060830151620022c3606086018262002367565b506080830151620022d8608086018262002367565b5060a0830151620022ed60a086018262002160565b5060c08301516200230260c086018262002160565b5060e08301516200231760e086018262002160565b506101008301516200232e61010086018262002367565b506101208301516200234561012086018262002367565b506101408301516200235c61014086018262002367565b508091505092915050565b62002372816200264b565b82525050565b62002383816200264b565b82525050565b620023948162002655565b82525050565b6000620023a8828462002204565b915081905092915050565b6000602082019050620023ca6000830184620020ce565b92915050565b60006020820190508181036000830152620023ec8184620020df565b905092915050565b600060208201905081810360008301526200240f816200223b565b9050919050565b600060a0820190506200242d600083018862002378565b6200243c6020830187620020ce565b6200244b604083018662002389565b6200245a606083018562002389565b62002469608083018462002389565b9695505050505050565b6000610160820190506200248b600083018e62002378565b81810360208301526200249f818d620021c3565b9050620024b0604083018c620020ce565b620024bf606083018b62002378565b620024ce608083018a62002378565b620024dd60a083018962002171565b620024ec60c083018862002171565b620024fb60e083018762002171565b6200250b61010083018662002378565b6200251b61012083018562002378565b6200252b61014083018462002378565b9c9b505050505050505050505050565b6000620025476200255a565b9050620025558282620026dd565b919050565b6000604051905090565b600067ffffffffffffffff821115620025825762002581620027bf565b5b6200258d82620027ee565b9050602081019050919050565b6000819050602082019050919050565b600081519050919050565b600081519050919050565b6000602082019050919050565b600082825260208201905092915050565b600082825260208201905092915050565b600082825260208201905092915050565b600081905092915050565b600062002618826200262b565b9050919050565b60008115159050919050565b600073ffffffffffffffffffffffffffffffffffffffff82169050919050565b6000819050919050565b600060ff82169050919050565b82818337600083830152505050565b60005b838110156200269157808201518184015260208101905062002674565b83811115620026a1576000848401525b50505050565b60006002820490506001821680620026c057607f821691505b60208210811415620026d757620026d662002790565b5b50919050565b620026e882620027ee565b810181811067ffffffffffffffff821117156200270a5762002709620027bf565b5b80604052505050565b600062002720826200264b565b91507fffffffffffffffffffffffffffffffffffffffffffffffffffffffffffffffff82141562002756576200275562002761565b5b600182019050919050565b7f4e487b7100000000000000000000000000000000000000000000000000000000600052601160045260246000fd5b7f4e487b7100000000000000000000000000000000000000000000000000000000600052602260045260246000fd5b7f4e487b7100000000000000000000000000000000000000000000000000000000600052604160045260246000fd5b6000601f19601f8301169050919050565b7f496e76616c696420696e64657800000000000000000000000000000000000000600082015250565b62002833816200261f565b81146200283f57600080fd5b50565b6200284d816200264b565b81146200285957600080fd5b50565b620028678162002655565b81146200287357600080fd5b5056fe60806040523480156200001157600080fd5b50604051620015c6380380620015c6833981810160405281019062000037919062000423565b336000806101000a81548173ffffffffffffffffffffffffffffffffffffffff021916908373ffffffffffffffffffffffffffffffffffffffff16021790555060405180610120016040528086815260200160008054906101000a900473ffffffffffffffffffffffffffffffffffffffff1673ffffffffffffffffffffffffffffffffffffffff1681526020018573ffffffffffffffffffffffffffffffffffffffff168152602001600073ffffffffffffffffffffffffffffffffffffffff168152602001600081526020018460ff1681526020018360ff1681526020018260ff168152602001600067ffffffffffffffff81111562000162577f4e487b7100000000000000000000000000000000000000000000000000000000600052604160045260246000fd5b604051908082528060200260200182016040528015620001915781602001602082028036833780820191505090505b5081525060016000820151816000015560208201518160010160006101000a81548173ffffffffffffffffffffffffffffffffffffffff021916908373ffffffffffffffffffffffffffffffffffffffff16021790555060408201518160020160006101000a81548173ffffffffffffffffffffffffffffffffffffffff021916908373ffffffffffffffffffffffffffffffffffffffff16021790555060608201518160030160006101000a81548173ffffffffffffffffffffffffffffffffffffffff021916908373ffffffffffffffffffffffffffffffffffffffff1602179055506080820151816004015560a08201518160050160006101000a81548160ff021916908360ff16021790555060c08201518160050160016101000a81548160ff021916908360ff16021790555060e08201518160050160026101000a81548160ff021916908360ff1602179055506101008201518160060190805190602001906200030292919062000311565b5090505050505050506200053e565b82805482825590600052602060002090601f01602090048101928215620003ac5791602002820160005b838211156200037b57835183826101000a81548160ff021916908360ff16021790555092602001926001016020816000010492830192600103026200033b565b8015620003aa5782816101000a81549060ff02191690556001016020816000010492830192600103026200037b565b505b509050620003bb9190620003bf565b5090565b5b80821115620003da576000816000905550600101620003c0565b5090565b600081519050620003ef81620004f0565b92915050565b60008151905062000406816200050a565b92915050565b6000815190506200041d8162000524565b92915050565b600080600080600060a086880312156200043c57600080fd5b60006200044c88828901620003f5565b95505060206200045f88828901620003de565b945050604062000472888289016200040c565b935050606062000485888289016200040c565b925050608062000498888289016200040c565b9150509295509295909350565b6000620004b282620004b9565b9050919050565b600073ffffffffffffffffffffffffffffffffffffffff82169050919050565b6000819050919050565b600060ff82169050919050565b620004fb81620004a5565b81146200050757600080fd5b50565b6200051581620004d9565b81146200052157600080fd5b50565b6200052f81620004e3565b81146200053b57600080fd5b50565b611078806200054e6000396000f3fe6080604052600436106100555760003560e01c80630c08bf881461005a57806320423385146100715780632c05a2f11461009a57806385209ee0146100c55780638da5cb5b146100f75780638f449a0514610122575b600080fd5b34801561006657600080fd5b5061006f61012c565b005b34801561007d57600080fd5b5061009860048036038101906100939190610a6d565b6102c0565b005b3480156100a657600080fd5b506100af610583565b6040516100bc9190610b9c565b60405180910390f35b3480156100d157600080fd5b506100da6105de565b6040516100ee989796959493929190610c57565b60405180910390f35b34801561010357600080fd5b5061010c61069b565b6040516101199190610b81565b60405180910390f35b61012a6106bf565b005b60008054906101000a900473ffffffffffffffffffffffffffffffffffffffff1673ffffffffffffffffffffffffffffffffffffffff163373ffffffffffffffffffffffffffffffffffffffff16146101ba576040517f08c379a00000000000000000000000000000000000000000000000000000000081526004016101b190610c17565b60405180910390fd5b60006001800160009054906101000a900473ffffffffffffffffffffffffffffffffffffffff1690508073ffffffffffffffffffffffffffffffffffffffff1663189c8f6a6001600001544760006040518463ffffffff1660e01b815260040161022693929190610cfe565b600060405180830381600087803b15801561024057600080fd5b505af1158015610254573d6000803e3d6000fd5b50505050600073ffffffffffffffffffffffffffffffffffffffff16600160030160009054906101000a90505050600160030160009054906101000a900473ffffffffffffffffffffffffffffffffffffffff1673ffffffffffffffffffffffffffffffffffffffff16ff5b600160020160009054906101000a900473ffffffffffffffffffffffffffffffffffffffff1673ffffffffffffffffffffffffffffffffffffffff163373ffffffffffffffffffffffffffffffffffffffff1614610353576040517f08c379a000000000000000000000000000000000000000000000000000000000815260040161034a90610bf7565b60405180910390fd5b61035b610583565b1561039b576040517f08c379a000000000000000000000000000000000000000000000000000000000815260040161039290610bd7565b60405180910390fd5b600160050160029054906101000a900460ff1660ff16600160060180549050106103fa576040517f08c379a00000000000000000000000000000000000000000000000000000000081526004016103f190610bb7565b60405180910390fd5b6064816104079190610dcd565b600160050160009054906101000a900460ff16600160050160019054906101000a900460ff166104379190610e27565b60ff16111561048e576001600601600090806001815401808255809150506001900390600052602060002090602091828204019190069091909190916101000a81548160ff021916908360ff1602179055506104d8565b6001600601600190806001815401808255809150506001900390600052602060002090602091828204019190069091909190916101000a81548160ff021916908360ff1602179055505b600160050160029054906101000a900460ff1660ff1660016006018054905014156105805761057f600160060180548060200260200160405190810160405280929190818152602001828054801561057557602002820191906000526020600020906000905b82829054906101000a900460ff1660ff168152602001906001019060208260000104928301926001038202915080841161053e5790505b505050505061083f565b5b50565b60008073ffffffffffffffffffffffffffffffffffffffff16600160030160009054906101000a900473ffffffffffffffffffffffffffffffffffffffff1673ffffffffffffffffffffffffffffffffffffffff1614905090565b60018060000154908060010160009054906101000a900473ffffffffffffffffffffffffffffffffffffffff16908060020160009054906101000a900473ffffffffffffffffffffffffffffffffffffffff16908060030160009054906101000a900473ffffffffffffffffffffffffffffffffffffffff16908060040154908060050160009054906101000a900460ff16908060050160019054906101000a900460ff16908060050160029054906101000a900460ff16905088565b60008054906101000a900473ffffffffffffffffffffffffffffffffffffffff1681565b600073ffffffffffffffffffffffffffffffffffffffff16600160030160009054906101000a900473ffffffffffffffffffffffffffffffffffffffff1673ffffffffffffffffffffffffffffffffffffffff1614610753576040517f08c379a000000000000000000000000000000000000000000000000000000000815260040161074a90610c37565b60405180910390fd5b33600160030160006101000a81548173ffffffffffffffffffffffffffffffffffffffff021916908373ffffffffffffffffffffffffffffffffffffffff1602179055503460016004018190555060006001800160009054906101000a900473ffffffffffffffffffffffffffffffffffffffff1690508073ffffffffffffffffffffffffffffffffffffffff1663963c8f93600160000154476040518363ffffffff1660e01b815260040161080a929190610cd5565b600060405180830381600087803b15801561082457600080fd5b505af1158015610838573d6000803e3d6000fd5b5050505050565b6000805b82518110156108b057828181518110610885577f4e487b7100000000000000000000000000000000000000000000000000000000600052603260045260246000fd5b602002602001015160ff168261089b9190610d46565b915080806108a890610eb7565b915050610843565b506000600160050160029054906101000a900460ff1660ff16826001600401546108da9190610dcd565b6108e49190610d9c565b9050600160020160009054906101000a900473ffffffffffffffffffffffffffffffffffffffff1673ffffffffffffffffffffffffffffffffffffffff166108fc829081150290604051600060405180830381858888f19350505050158015610951573d6000803e3d6000fd5b5060006001800160009054906101000a900473ffffffffffffffffffffffffffffffffffffffff1690508073ffffffffffffffffffffffffffffffffffffffff1663189c8f6a6001600001544760016040518463ffffffff1660e01b81526004016109be93929190610cfe565b600060405180830381600087803b1580156109d857600080fd5b505af11580156109ec573d6000803e3d6000fd5b50505050600073ffffffffffffffffffffffffffffffffffffffff16600160030160009054906101000a90505050600160030160009054906101000a900473ffffffffffffffffffffffffffffffffffffffff1673ffffffffffffffffffffffffffffffffffffffff16ff5b600081359050610a678161102b565b92915050565b600060208284031215610a7f57600080fd5b6000610a8d84828501610a58565b91505092915050565b610a9f81610e62565b82525050565b610aae81610e74565b82525050565b6000610ac1601483610d35565b9150610acc82610f5e565b602082019050919050565b6000610ae4601683610d35565b9150610aef82610f87565b602082019050919050565b6000610b07601983610d35565b9150610b1282610fb0565b602082019050919050565b6000610b2a601883610d35565b9150610b3582610fd9565b602082019050919050565b6000610b4d601283610d35565b9150610b5882611002565b602082019050919050565b610b6c81610ea0565b82525050565b610b7b81610eaa565b82525050565b6000602082019050610b966000830184610a96565b92915050565b6000602082019050610bb16000830184610aa5565b92915050565b60006020820190508181036000830152610bd081610ab4565b9050919050565b60006020820190508181036000830152610bf081610ad7565b9050919050565b60006020820190508181036000830152610c1081610afa565b9050919050565b60006020820190508181036000830152610c3081610b1d565b9050919050565b60006020820190508181036000830152610c5081610b40565b9050919050565b600061010082019050610c6d600083018b610b63565b610c7a602083018a610a96565b610c876040830189610a96565b610c946060830188610a96565b610ca16080830187610b63565b610cae60a0830186610b72565b610cbb60c0830185610b72565b610cc860e0830184610b72565b9998505050505050505050565b6000604082019050610cea6000830185610b63565b610cf76020830184610b63565b9392505050565b6000606082019050610d136000830186610b63565b610d206020830185610b63565b610d2d6040830184610aa5565b949350505050565b600082825260208201905092915050565b6000610d5182610ea0565b9150610d5c83610ea0565b9250827fffffffffffffffffffffffffffffffffffffffffffffffffffffffffffffffff03821115610d9157610d90610f00565b5b828201905092915050565b6000610da782610ea0565b9150610db283610ea0565b925082610dc257610dc1610f2f565b5b828204905092915050565b6000610dd882610ea0565b9150610de383610ea0565b9250817fffffffffffffffffffffffffffffffffffffffffffffffffffffffffffffffff0483118215151615610e1c57610e1b610f00565b5b828202905092915050565b6000610e3282610eaa565b9150610e3d83610eaa565b92508160ff0483118215151615610e5757610e56610f00565b5b828202905092915050565b6000610e6d82610e80565b9050919050565b60008115159050919050565b600073ffffffffffffffffffffffffffffffffffffffff82169050919050565b6000819050919050565b600060ff82169050919050565b6000610ec282610ea0565b91507fffffffffffffffffffffffffffffffffffffffffffffffffffffffffffffffff821415610ef557610ef4610f00565b5b600182019050919050565b7f4e487b7100000000000000000000000000000000000000000000000000000000600052601160045260246000fd5b7f4e487b7100000000000000000000000000000000000000000000000000000000600052601260045260246000fd5b7f44617461206c656e677468206578636565646564000000000000000000000000600082015250565b7f436f6e7472616374206973207465726d696e6174656400000000000000000000600082015250565b7f4f6e6c7920706172656e742063616e2063616c6c207468697300000000000000600082015250565b7f4f6e6c79206f776e65722063616e2063616c6c20746869730000000000000000600082015250565b7f416c726561647920737562736372696265640000000000000000000000000000600082015250565b61103481610ea0565b811461103f57600080fd5b5056fea2646970667358221220941d853d0b6378babefb43c34689dd397af91d33f99c1db847cb9a84cb586a7764736f6c63430008040033a26469706673582212203b55701e24d16aa7afb2d4fbe0425dad9039fa87bb776e84d3b3be852b15495464736f6c63430008040033",
  "linkReferences": {},
  "deployedLinkReferences": {}
}