{
  "_format": "hh-sol-artifact-1",
  "contractName": "ParentContract",
  "sourceName": "contracts/SmartContract_SLA.sol",
  "abi": [
    {
      "inputs": [],
      "stateMutability": "nonpayable",
      "type": "constructor"
    },
    {
      "inputs": [
        {
          "internalType": "uint256",
          "name": "index",
          "type": "uint256"
        },
        {
          "internalType": "uint256",
          "name": "compensation",
          "type": "uint256"
        },
        {
          "internalType": "bool",
          "name": "completed",
          "type": "bool"
        }
      ],
      "name": "childCompleted",
      "outputs": [],
      "stateMutability": "nonpayable",
      "type": "function"
    },
    {
      "inputs": [
        {
          "internalType": "uint256",
          "name": "",
          "type": "uint256"
        }
      ],
      "name": "childContracts",
      "outputs": [
        {
          "internalType": "uint256",
          "name": "Id",
          "type": "uint256"
        },
        {
          "internalType": "string",
          "name": "customerId",
          "type": "string"
        },
        {
          "internalType": "address",
          "name": "childContract",
          "type": "address"
        },
        {
          "internalType": "uint256",
          "name": "createdDateTime",
          "type": "uint256"
        },
        {
          "internalType": "uint256",
          "name": "terminatedDateTime",
          "type": "uint256"
        },
        {
          "internalType": "bool",
          "name": "terminated",
          "type": "bool"
        },
        {
          "internalType": "bool",
          "name": "completed",
          "type": "bool"
        },
        {
          "internalType": "bool",
          "name": "subscribed",
          "type": "bool"
        },
        {
          "internalType": "uint256",
          "name": "compensation",
          "type": "uint256"
        },
        {
          "internalType": "uint256",
          "name": "subscription",
          "type": "uint256"
        },
        {
          "internalType": "uint256",
          "name": "serviceAvailabilityAgreement",
          "type": "uint256"
        }
      ],
      "stateMutability": "view",
      "type": "function"
    },
    {
      "inputs": [
        {
          "internalType": "uint256",
          "name": "index",
          "type": "uint256"
        },
        {
          "internalType": "uint256",
          "name": "subscription",
          "type": "uint256"
        }
      ],
      "name": "childSubscribed",
      "outputs": [],
      "stateMutability": "nonpayable",
      "type": "function"
    },
    {
      "inputs": [
        {
          "internalType": "string",
          "name": "customerId",
          "type": "string"
        },
        {
          "internalType": "uint8",
          "name": "serviceAvailabilityAgreement",
          "type": "uint8"
        },
        {
          "internalType": "uint8",
          "name": "allocatedVcpus",
          "type": "uint8"
        },
        {
          "internalType": "uint8",
          "name": "monitoringPeriod",
          "type": "uint8"
        }
      ],
      "name": "createChildContract",
      "outputs": [],
      "stateMutability": "nonpayable",
      "type": "function"
    },
    {
      "inputs": [],
      "name": "getContractsAlive",
      "outputs": [
        {
          "components": [
            {
              "internalType": "uint256",
              "name": "Id",
              "type": "uint256"
            },
            {
              "internalType": "string",
              "name": "customerId",
              "type": "string"
            },
            {
              "internalType": "address",
              "name": "childContract",
              "type": "address"
            },
            {
              "internalType": "uint256",
              "name": "createdDateTime",
              "type": "uint256"
            },
            {
              "internalType": "uint256",
              "name": "terminatedDateTime",
              "type": "uint256"
            },
            {
              "internalType": "bool",
              "name": "terminated",
              "type": "bool"
            },
            {
              "internalType": "bool",
              "name": "completed",
              "type": "bool"
            },
            {
              "internalType": "bool",
              "name": "subscribed",
              "type": "bool"
            },
            {
              "internalType": "uint256",
              "name": "compensation",
              "type": "uint256"
            },
            {
              "internalType": "uint256",
              "name": "subscription",
              "type": "uint256"
            },
            {
              "internalType": "uint256",
              "name": "serviceAvailabilityAgreement",
              "type": "uint256"
            }
          ],
          "internalType": "struct ParentContract.ChildContractInfo[]",
          "name": "",
          "type": "tuple[]"
        }
      ],
      "stateMutability": "view",
      "type": "function"
    },
    {
      "inputs": [],
      "name": "getContractsTerminated",
      "outputs": [
        {
          "components": [
            {
              "internalType": "uint256",
              "name": "Id",
              "type": "uint256"
            },
            {
              "internalType": "string",
              "name": "customerId",
              "type": "string"
            },
            {
              "internalType": "address",
              "name": "childContract",
              "type": "address"
            },
            {
              "internalType": "uint256",
              "name": "createdDateTime",
              "type": "uint256"
            },
            {
              "internalType": "uint256",
              "name": "terminatedDateTime",
              "type": "uint256"
            },
            {
              "internalType": "bool",
              "name": "terminated",
              "type": "bool"
            },
            {
              "internalType": "bool",
              "name": "completed",
              "type": "bool"
            },
            {
              "internalType": "bool",
              "name": "subscribed",
              "type": "bool"
            },
            {
              "internalType": "uint256",
              "name": "compensation",
              "type": "uint256"
            },
            {
              "internalType": "uint256",
              "name": "subscription",
              "type": "uint256"
            },
            {
              "internalType": "uint256",
              "name": "serviceAvailabilityAgreement",
              "type": "uint256"
            }
          ],
          "internalType": "struct ParentContract.ChildContractInfo[]",
          "name": "",
          "type": "tuple[]"
        }
      ],
      "stateMutability": "view",
      "type": "function"
    },
    {
      "inputs": [],
      "name": "owner",
      "outputs": [
        {
          "internalType": "address",
          "name": "",
          "type": "address"
        }
      ],
      "stateMutability": "view",
      "type": "function"
    },
    {
      "inputs": [
        {
          "internalType": "uint256",
          "name": "index",
          "type": "uint256"
        }
      ],
      "name": "terminateChildContract",
      "outputs": [],
      "stateMutability": "nonpayable",
      "type": "function"
    }
  ],
  "bytecode": "0x608060405234801561001057600080fd5b50336000806101000a81548173ffffffffffffffffffffffffffffffffffffffff021916908373ffffffffffffffffffffffffffffffffffffffff160217905550613175806100606000396000f3fe60806040523480156200001157600080fd5b5060043610620000945760003560e01c8063963c8f931162000063578063963c8f93146200013b578063a3708a38146200015b578063c288c02e146200017b578063d3eb0264146200019d5762000094565b8063189c8f6a1462000099578063318ba6dd14620000b95780638da5cb5b14620000d957806395bc992814620000fb575b600080fd5b620000b76004803603810190620000b19190620013af565b620001bf565b005b620000d76004803603810190620000d1919062001342565b62000378565b005b620000e362000499565b604051620000f29190620016c1565b60405180910390f35b62000119600480360381019062000113919062001342565b620004bd565b604051620001329b9a9998979695949392919062001781565b60405180910390f35b6200015960048036038101906200015391906200136e565b620005ff565b005b620001796004803603810190620001739190620012bd565b62000702565b005b6200018562000922565b604051620001949190620016de565b60405180910390f35b620001a762000cf9565b604051620001b69190620016de565b60405180910390f35b600180549050831062000209576040517f08c379a0000000000000000000000000000000000000000000000000000000008152600401620002009062001702565b60405180910390fd5b426001848154811062000245577f4e487b7100000000000000000000000000000000000000000000000000000000600052603260045260246000fd5b906000526020600020906009020160040181905550600180848154811062000296577f4e487b7100000000000000000000000000000000000000000000000000000000600052603260045260246000fd5b906000526020600020906009020160050160006101000a81548160ff0219169083151502179055508060018481548110620002fa577f4e487b7100000000000000000000000000000000000000000000000000000000600052603260045260246000fd5b906000526020600020906009020160050160016101000a81548160ff02191690831515021790555081600184815481106200035e577f4e487b7100000000000000000000000000000000000000000000000000000000600052603260045260246000fd5b906000526020600020906009020160060181905550505050565b6001805490508110620003c2576040517f08c379a0000000000000000000000000000000000000000000000000000000008152600401620003b99062001702565b60405180910390fd5b600060018281548110620003ff577f4e487b7100000000000000000000000000000000000000000000000000000000600052603260045260246000fd5b906000526020600020906009020160020160009054906101000a900473ffffffffffffffffffffffffffffffffffffffff1690508073ffffffffffffffffffffffffffffffffffffffff16630c08bf886040518163ffffffff1660e01b8152600401600060405180830381600087803b1580156200047c57600080fd5b505af115801562000491573d6000803e3d6000fd5b505050505050565b60008054906101000a900473ffffffffffffffffffffffffffffffffffffffff1681565b60018181548110620004ce57600080fd5b9060005260206000209060090201600091509050806000015490806001018054620004f990620019aa565b80601f01602080910402602001604051908101604052809291908181526020018280546200052790620019aa565b8015620005785780601f106200054c5761010080835404028352916020019162000578565b820191906000526020600020905b8154815290600101906020018083116200055a57829003601f168201915b5050505050908060020160009054906101000a900473ffffffffffffffffffffffffffffffffffffffff16908060030154908060040154908060050160009054906101000a900460ff16908060050160019054906101000a900460ff16908060050160029054906101000a900460ff1690806006015490806007015490806008015490508b565b600180549050821062000649576040517f08c379a0000000000000000000000000000000000000000000000000000000008152600401620006409062001702565b60405180910390fd5b806001838154811062000685577f4e487b7100000000000000000000000000000000000000000000000000000000600052603260045260246000fd5b9060005260206000209060090201600701819055506001808381548110620006d6577f4e487b7100000000000000000000000000000000000000000000000000000000600052603260045260246000fd5b906000526020600020906009020160050160026101000a81548160ff0219169083151502179055505050565b6000600180549050905060008160008054906101000a900473ffffffffffffffffffffffffffffffffffffffff168686866040516200074190620010d2565b6200075195949392919062001724565b604051809103906000f0801580156200076e573d6000803e3d6000fd5b50905060006040518061016001604052808481526020018881526020018373ffffffffffffffffffffffffffffffffffffffff1681526020014281526020016000815260200160001515815260200160001515815260200160001515815260200160008152602001600081526020018760ff16815250905060018190806001815401808255809150506001900390600052602060002090600902016000909190919091506000820151816000015560208201518160010190805190602001906200083a929190620010e0565b5060408201518160020160006101000a81548173ffffffffffffffffffffffffffffffffffffffff021916908373ffffffffffffffffffffffffffffffffffffffff160217905550606082015181600301556080820151816004015560a08201518160050160006101000a81548160ff02191690831515021790555060c08201518160050160016101000a81548160ff02191690831515021790555060e08201518160050160026101000a81548160ff021916908315150217905550610100820151816006015561012082015181600701556101408201518160080155505050505050505050565b60606000805b600180549050811015620009bc576001818154811062000971577f4e487b7100000000000000000000000000000000000000000000000000000000600052603260045260246000fd5b906000526020600020906009020160050160009054906101000a900460ff16620009a6578180620009a29062001a16565b9250505b8080620009b39062001a16565b91505062000928565b5060008167ffffffffffffffff81111562000a00577f4e487b7100000000000000000000000000000000000000000000000000000000600052604160045260246000fd5b60405190808252806020026020018201604052801562000a3d57816020015b62000a2962001171565b81526020019060019003908162000a1f5790505b5090506000805b60018054905081101562000cef576001818154811062000a8d577f4e487b7100000000000000000000000000000000000000000000000000000000600052603260045260246000fd5b906000526020600020906009020160050160009054906101000a900460ff1662000cd9576001818154811062000aec577f4e487b7100000000000000000000000000000000000000000000000000000000600052603260045260246000fd5b9060005260206000209060090201604051806101600160405290816000820154815260200160018201805462000b2290620019aa565b80601f016020809104026020016040519081016040528092919081815260200182805462000b5090620019aa565b801562000ba15780601f1062000b755761010080835404028352916020019162000ba1565b820191906000526020600020905b81548152906001019060200180831162000b8357829003601f168201915b505050505081526020016002820160009054906101000a900473ffffffffffffffffffffffffffffffffffffffff1673ffffffffffffffffffffffffffffffffffffffff1673ffffffffffffffffffffffffffffffffffffffff16815260200160038201548152602001600482015481526020016005820160009054906101000a900460ff161515151581526020016005820160019054906101000a900460ff161515151581526020016005820160029054906101000a900460ff16151515158152602001600682015481526020016007820154815260200160088201548152505083838151811062000cbd577f4e487b7100000000000000000000000000000000000000000000000000000000600052603260045260246000fd5b6020026020010181905250818062000cd59062001a16565b9250505b808062000ce69062001a16565b91505062000a44565b5081935050505090565b60606000805b60018054905081101562000d94576001818154811062000d48577f4e487b7100000000000000000000000000000000000000000000000000000000600052603260045260246000fd5b906000526020600020906009020160050160009054906101000a900460ff161562000d7e57818062000d7a9062001a16565b9250505b808062000d8b9062001a16565b91505062000cff565b5060008167ffffffffffffffff81111562000dd8577f4e487b7100000000000000000000000000000000000000000000000000000000600052604160045260246000fd5b60405190808252806020026020018201604052801562000e1557816020015b62000e0162001171565b81526020019060019003908162000df75790505b5090506000805b600180549050811015620010c8576001818154811062000e65577f4e487b7100000000000000000000000000000000000000000000000000000000600052603260045260246000fd5b906000526020600020906009020160050160009054906101000a900460ff1615620010b2576001818154811062000ec5577f4e487b7100000000000000000000000000000000000000000000000000000000600052603260045260246000fd5b9060005260206000209060090201604051806101600160405290816000820154815260200160018201805462000efb90620019aa565b80601f016020809104026020016040519081016040528092919081815260200182805462000f2990620019aa565b801562000f7a5780601f1062000f4e5761010080835404028352916020019162000f7a565b820191906000526020600020905b81548152906001019060200180831162000f5c57829003601f168201915b505050505081526020016002820160009054906101000a900473ffffffffffffffffffffffffffffffffffffffff1673ffffffffffffffffffffffffffffffffffffffff1673ffffffffffffffffffffffffffffffffffffffff16815260200160038201548152602001600482015481526020016005820160009054906101000a900460ff161515151581526020016005820160019054906101000a900460ff161515151581526020016005820160029054906101000a900460ff16151515158152602001600682015481526020016007820154815260200160088201548152505083838151811062001096577f4e487b7100000000000000000000000000000000000000000000000000000000600052603260045260246000fd5b60200260200101819052508180620010ae9062001a16565b9250505b8080620010bf9062001a16565b91505062000e1c565b5081935050505090565b6115c68062001b7a83390190565b828054620010ee90620019aa565b90600052602060002090601f0160209004810192826200111257600085556200115e565b82601f106200112d57805160ff19168380011785556200115e565b828001600101855582156200115e579182015b828111156200115d57825182559160200191906001019062001140565b5b5090506200116d9190620011e7565b5090565b6040518061016001604052806000815260200160608152602001600073ffffffffffffffffffffffffffffffffffffffff16815260200160008152602001600081526020016000151581526020016000151581526020016000151581526020016000815260200160008152602001600081525090565b5b8082111562001202576000816000905550600101620011e8565b5090565b60006200121d620012178462001872565b62001849565b9050828152602081018484840111156200123657600080fd5b6200124384828562001965565b509392505050565b6000813590506200125c8162001b2b565b92915050565b600082601f8301126200127457600080fd5b81356200128684826020860162001206565b91505092915050565b600081359050620012a08162001b45565b92915050565b600081359050620012b78162001b5f565b92915050565b60008060008060808587031215620012d457600080fd5b600085013567ffffffffffffffff811115620012ef57600080fd5b620012fd8782880162001262565b94505060206200131087828801620012a6565b93505060406200132387828801620012a6565b92505060606200133687828801620012a6565b91505092959194509250565b6000602082840312156200135557600080fd5b600062001365848285016200128f565b91505092915050565b600080604083850312156200138257600080fd5b600062001392858286016200128f565b9250506020620013a5858286016200128f565b9150509250929050565b600080600060608486031215620013c557600080fd5b6000620013d5868287016200128f565b9350506020620013e8868287016200128f565b9250506040620013fb868287016200124b565b9150509250925092565b600062001413838362001589565b905092915050565b62001426816200190e565b82525050565b62001437816200190e565b82525050565b60006200144a82620018b8565b620014568185620018db565b9350836020820285016200146a85620018a8565b8060005b85811015620014ac57848403895281516200148a858262001405565b94506200149783620018ce565b925060208a019950506001810190506200146e565b50829750879550505050505092915050565b620014c98162001922565b82525050565b620014da8162001922565b82525050565b6000620014ed82620018c3565b620014f98185620018ec565b93506200150b81856020860162001974565b620015168162001af1565b840191505092915050565b60006200152e82620018c3565b6200153a8185620018fd565b93506200154c81856020860162001974565b620015578162001af1565b840191505092915050565b600062001571600d83620018fd565b91506200157e8262001b02565b602082019050919050565b600061016083016000830151620015a460008601826200168e565b5060208301518482036020860152620015be8282620014e0565b9150506040830151620015d560408601826200141b565b506060830151620015ea60608601826200168e565b506080830151620015ff60808601826200168e565b5060a08301516200161460a0860182620014be565b5060c08301516200162960c0860182620014be565b5060e08301516200163e60e0860182620014be565b50610100830151620016556101008601826200168e565b506101208301516200166c6101208601826200168e565b50610140830151620016836101408601826200168e565b508091505092915050565b62001699816200194e565b82525050565b620016aa816200194e565b82525050565b620016bb8162001958565b82525050565b6000602082019050620016d860008301846200142c565b92915050565b60006020820190508181036000830152620016fa81846200143d565b905092915050565b600060208201905081810360008301526200171d8162001562565b9050919050565b600060a0820190506200173b60008301886200169f565b6200174a60208301876200142c565b620017596040830186620016b0565b620017686060830185620016b0565b620017776080830184620016b0565b9695505050505050565b60006101608201905062001799600083018e6200169f565b8181036020830152620017ad818d62001521565b9050620017be604083018c6200142c565b620017cd606083018b6200169f565b620017dc608083018a6200169f565b620017eb60a0830189620014cf565b620017fa60c0830188620014cf565b6200180960e0830187620014cf565b620018196101008301866200169f565b620018296101208301856200169f565b620018396101408301846200169f565b9c9b505050505050505050505050565b60006200185562001868565b9050620018638282620019e0565b919050565b6000604051905090565b600067ffffffffffffffff82111562001890576200188f62001ac2565b5b6200189b8262001af1565b9050602081019050919050565b6000819050602082019050919050565b600081519050919050565b600081519050919050565b6000602082019050919050565b600082825260208201905092915050565b600082825260208201905092915050565b600082825260208201905092915050565b60006200191b826200192e565b9050919050565b60008115159050919050565b600073ffffffffffffffffffffffffffffffffffffffff82169050919050565b6000819050919050565b600060ff82169050919050565b82818337600083830152505050565b60005b838110156200199457808201518184015260208101905062001977565b83811115620019a4576000848401525b50505050565b60006002820490506001821680620019c357607f821691505b60208210811415620019da57620019d962001a93565b5b50919050565b620019eb8262001af1565b810181811067ffffffffffffffff8211171562001a0d5762001a0c62001ac2565b5b80604052505050565b600062001a23826200194e565b91507fffffffffffffffffffffffffffffffffffffffffffffffffffffffffffffffff82141562001a595762001a5862001a64565b5b600182019050919050565b7f4e487b7100000000000000000000000000000000000000000000000000000000600052601160045260246000fd5b7f4e487b7100000000000000000000000000000000000000000000000000000000600052602260045260246000fd5b7f4e487b7100000000000000000000000000000000000000000000000000000000600052604160045260246000fd5b6000601f19601f8301169050919050565b7f496e76616c696420696e64657800000000000000000000000000000000000000600082015250565b62001b368162001922565b811462001b4257600080fd5b50565b62001b50816200194e565b811462001b5c57600080fd5b50565b62001b6a8162001958565b811462001b7657600080fd5b5056fe60806040523480156200001157600080fd5b50604051620015c6380380620015c6833981810160405281019062000037919062000423565b336000806101000a81548173ffffffffffffffffffffffffffffffffffffffff021916908373ffffffffffffffffffffffffffffffffffffffff16021790555060405180610120016040528086815260200160008054906101000a900473ffffffffffffffffffffffffffffffffffffffff1673ffffffffffffffffffffffffffffffffffffffff1681526020018573ffffffffffffffffffffffffffffffffffffffff168152602001600073ffffffffffffffffffffffffffffffffffffffff168152602001600081526020018460ff1681526020018360ff1681526020018260ff168152602001600067ffffffffffffffff81111562000162577f4e487b7100000000000000000000000000000000000000000000000000000000600052604160045260246000fd5b604051908082528060200260200182016040528015620001915781602001602082028036833780820191505090505b5081525060016000820151816000015560208201518160010160006101000a81548173ffffffffffffffffffffffffffffffffffffffff021916908373ffffffffffffffffffffffffffffffffffffffff16021790555060408201518160020160006101000a81548173ffffffffffffffffffffffffffffffffffffffff021916908373ffffffffffffffffffffffffffffffffffffffff16021790555060608201518160030160006101000a81548173ffffffffffffffffffffffffffffffffffffffff021916908373ffffffffffffffffffffffffffffffffffffffff1602179055506080820151816004015560a08201518160050160006101000a81548160ff021916908360ff16021790555060c08201518160050160016101000a81548160ff021916908360ff16021790555060e08201518160050160026101000a81548160ff021916908360ff1602179055506101008201518160060190805190602001906200030292919062000311565b5090505050505050506200053e565b82805482825590600052602060002090601f01602090048101928215620003ac5791602002820160005b838211156200037b57835183826101000a81548160ff021916908360ff16021790555092602001926001016020816000010492830192600103026200033b565b8015620003aa5782816101000a81549060ff02191690556001016020816000010492830192600103026200037b565b505b509050620003bb9190620003bf565b5090565b5b80821115620003da576000816000905550600101620003c0565b5090565b600081519050620003ef81620004f0565b92915050565b60008151905062000406816200050a565b92915050565b6000815190506200041d8162000524565b92915050565b600080600080600060a086880312156200043c57600080fd5b60006200044c88828901620003f5565b95505060206200045f88828901620003de565b945050604062000472888289016200040c565b935050606062000485888289016200040c565b925050608062000498888289016200040c565b9150509295509295909350565b6000620004b282620004b9565b9050919050565b600073ffffffffffffffffffffffffffffffffffffffff82169050919050565b6000819050919050565b600060ff82169050919050565b620004fb81620004a5565b81146200050757600080fd5b50565b6200051581620004d9565b81146200052157600080fd5b50565b6200052f81620004e3565b81146200053b57600080fd5b50565b611078806200054e6000396000f3fe6080604052600436106100555760003560e01c80630c08bf881461005a57806320423385146100715780632c05a2f11461009a57806385209ee0146100c55780638da5cb5b146100f75780638f449a0514610122575b600080fd5b34801561006657600080fd5b5061006f61012c565b005b34801561007d57600080fd5b5061009860048036038101906100939190610a6d565b6102c0565b005b3480156100a657600080fd5b506100af610583565b6040516100bc9190610b9c565b60405180910390f35b3480156100d157600080fd5b506100da6105de565b6040516100ee989796959493929190610c57565b60405180910390f35b34801561010357600080fd5b5061010c61069b565b6040516101199190610b81565b60405180910390f35b61012a6106bf565b005b60008054906101000a900473ffffffffffffffffffffffffffffffffffffffff1673ffffffffffffffffffffffffffffffffffffffff163373ffffffffffffffffffffffffffffffffffffffff16146101ba576040517f08c379a00000000000000000000000000000000000000000000000000000000081526004016101b190610c17565b60405180910390fd5b60006001800160009054906101000a900473ffffffffffffffffffffffffffffffffffffffff1690508073ffffffffffffffffffffffffffffffffffffffff1663189c8f6a6001600001544760006040518463ffffffff1660e01b815260040161022693929190610cfe565b600060405180830381600087803b15801561024057600080fd5b505af1158015610254573d6000803e3d6000fd5b50505050600073ffffffffffffffffffffffffffffffffffffffff16600160030160009054906101000a90505050600160030160009054906101000a900473ffffffffffffffffffffffffffffffffffffffff1673ffffffffffffffffffffffffffffffffffffffff16ff5b600160020160009054906101000a900473ffffffffffffffffffffffffffffffffffffffff1673ffffffffffffffffffffffffffffffffffffffff163373ffffffffffffffffffffffffffffffffffffffff1614610353576040517f08c379a000000000000000000000000000000000000000000000000000000000815260040161034a90610bf7565b60405180910390fd5b61035b610583565b1561039b576040517f08c379a000000000000000000000000000000000000000000000000000000000815260040161039290610bd7565b60405180910390fd5b600160050160029054906101000a900460ff1660ff16600160060180549050106103fa576040517f08c379a00000000000000000000000000000000000000000000000000000000081526004016103f190610bb7565b60405180910390fd5b6064816104079190610dcd565b600160050160009054906101000a900460ff16600160050160019054906101000a900460ff166104379190610e27565b60ff16111561048e576001600601600090806001815401808255809150506001900390600052602060002090602091828204019190069091909190916101000a81548160ff021916908360ff1602179055506104d8565b6001600601600190806001815401808255809150506001900390600052602060002090602091828204019190069091909190916101000a81548160ff021916908360ff1602179055505b600160050160029054906101000a900460ff1660ff1660016006018054905014156105805761057f600160060180548060200260200160405190810160405280929190818152602001828054801561057557602002820191906000526020600020906000905b82829054906101000a900460ff1660ff168152602001906001019060208260000104928301926001038202915080841161053e5790505b505050505061083f565b5b50565b60008073ffffffffffffffffffffffffffffffffffffffff16600160030160009054906101000a900473ffffffffffffffffffffffffffffffffffffffff1673ffffffffffffffffffffffffffffffffffffffff1614905090565b60018060000154908060010160009054906101000a900473ffffffffffffffffffffffffffffffffffffffff16908060020160009054906101000a900473ffffffffffffffffffffffffffffffffffffffff16908060030160009054906101000a900473ffffffffffffffffffffffffffffffffffffffff16908060040154908060050160009054906101000a900460ff16908060050160019054906101000a900460ff16908060050160029054906101000a900460ff16905088565b60008054906101000a900473ffffffffffffffffffffffffffffffffffffffff1681565b600073ffffffffffffffffffffffffffffffffffffffff16600160030160009054906101000a900473ffffffffffffffffffffffffffffffffffffffff1673ffffffffffffffffffffffffffffffffffffffff1614610753576040517f08c379a000000000000000000000000000000000000000000000000000000000815260040161074a90610c37565b60405180910390fd5b33600160030160006101000a81548173ffffffffffffffffffffffffffffffffffffffff021916908373ffffffffffffffffffffffffffffffffffffffff1602179055503460016004018190555060006001800160009054906101000a900473ffffffffffffffffffffffffffffffffffffffff1690508073ffffffffffffffffffffffffffffffffffffffff1663963c8f93600160000154476040518363ffffffff1660e01b815260040161080a929190610cd5565b600060405180830381600087803b15801561082457600080fd5b505af1158015610838573d6000803e3d6000fd5b5050505050565b6000805b82518110156108b057828181518110610885577f4e487b7100000000000000000000000000000000000000000000000000000000600052603260045260246000fd5b602002602001015160ff168261089b9190610d46565b915080806108a890610eb7565b915050610843565b506000600160050160029054906101000a900460ff1660ff16826001600401546108da9190610dcd565b6108e49190610d9c565b9050600160020160009054906101000a900473ffffffffffffffffffffffffffffffffffffffff1673ffffffffffffffffffffffffffffffffffffffff166108fc829081150290604051600060405180830381858888f19350505050158015610951573d6000803e3d6000fd5b5060006001800160009054906101000a900473ffffffffffffffffffffffffffffffffffffffff1690508073ffffffffffffffffffffffffffffffffffffffff1663189c8f6a6001600001544760016040518463ffffffff1660e01b81526004016109be93929190610cfe565b600060405180830381600087803b1580156109d857600080fd5b505af11580156109ec573d6000803e3d6000fd5b50505050600073ffffffffffffffffffffffffffffffffffffffff16600160030160009054906101000a90505050600160030160009054906101000a900473ffffffffffffffffffffffffffffffffffffffff1673ffffffffffffffffffffffffffffffffffffffff16ff5b600081359050610a678161102b565b92915050565b600060208284031215610a7f57600080fd5b6000610a8d84828501610a58565b91505092915050565b610a9f81610e62565b82525050565b610aae81610e74565b82525050565b6000610ac1601483610d35565b9150610acc82610f5e565b602082019050919050565b6000610ae4601683610d35565b9150610aef82610f87565b602082019050919050565b6000610b07601983610d35565b9150610b1282610fb0565b602082019050919050565b6000610b2a601883610d35565b9150610b3582610fd9565b602082019050919050565b6000610b4d601283610d35565b9150610b5882611002565b602082019050919050565b610b6c81610ea0565b82525050565b610b7b81610eaa565b82525050565b6000602082019050610b966000830184610a96565b92915050565b6000602082019050610bb16000830184610aa5565b92915050565b60006020820190508181036000830152610bd081610ab4565b9050919050565b60006020820190508181036000830152610bf081610ad7565b9050919050565b60006020820190508181036000830152610c1081610afa565b9050919050565b60006020820190508181036000830152610c3081610b1d565b9050919050565b60006020820190508181036000830152610c5081610b40565b9050919050565b600061010082019050610c6d600083018b610b63565b610c7a602083018a610a96565b610c876040830189610a96565b610c946060830188610a96565b610ca16080830187610b63565b610cae60a0830186610b72565b610cbb60c0830185610b72565b610cc860e0830184610b72565b9998505050505050505050565b6000604082019050610cea6000830185610b63565b610cf76020830184610b63565b9392505050565b6000606082019050610d136000830186610b63565b610d206020830185610b63565b610d2d6040830184610aa5565b949350505050565b600082825260208201905092915050565b6000610d5182610ea0565b9150610d5c83610ea0565b9250827fffffffffffffffffffffffffffffffffffffffffffffffffffffffffffffffff03821115610d9157610d90610f00565b5b828201905092915050565b6000610da782610ea0565b9150610db283610ea0565b925082610dc257610dc1610f2f565b5b828204905092915050565b6000610dd882610ea0565b9150610de383610ea0565b9250817fffffffffffffffffffffffffffffffffffffffffffffffffffffffffffffffff0483118215151615610e1c57610e1b610f00565b5b828202905092915050565b6000610e3282610eaa565b9150610e3d83610eaa565b92508160ff0483118215151615610e5757610e56610f00565b5b828202905092915050565b6000610e6d82610e80565b9050919050565b60008115159050919050565b600073ffffffffffffffffffffffffffffffffffffffff82169050919050565b6000819050919050565b600060ff82169050919050565b6000610ec282610ea0565b91507fffffffffffffffffffffffffffffffffffffffffffffffffffffffffffffffff821415610ef557610ef4610f00565b5b600182019050919050565b7f4e487b7100000000000000000000000000000000000000000000000000000000600052601160045260246000fd5b7f4e487b7100000000000000000000000000000000000000000000000000000000600052601260045260246000fd5b7f44617461206c656e677468206578636565646564000000000000000000000000600082015250565b7f436f6e7472616374206973207465726d696e6174656400000000000000000000600082015250565b7f4f6e6c7920706172656e742063616e2063616c6c207468697300000000000000600082015250565b7f4f6e6c79206f776e65722063616e2063616c6c20746869730000000000000000600082015250565b7f416c726561647920737562736372696265640000000000000000000000000000600082015250565b61103481610ea0565b811461103f57600080fd5b5056fea2646970667358221220e1f13dfde5f372118342db9abb2e02f476bcdca03365a7a6807b04eb21eb176f64736f6c63430008040033a264697066735822122089039ee73dba4e5536d9cbfd3f8686539eaf374a7626b24b6bf8e59a4af447e564736f6c63430008040033",
  "linkReferences": {},
  "deployedLinkReferences": {}
}