{
  "_format": "hh-sol-artifact-1",
  "contractName": "ParentContract",
  "sourceName": "contracts/SmartContract_SLA.sol",
  "abi": [
    {
      "inputs": [],
      "stateMutability": "nonpayable",
      "type": "constructor"
    },
    {
      "inputs": [
        {
          "internalType": "uint256",
          "name": "index",
          "type": "uint256"
        },
        {
          "internalType": "uint256",
          "name": "compensation",
          "type": "uint256"
        },
        {
          "internalType": "bool",
          "name": "completed",
          "type": "bool"
        }
      ],
      "name": "childCompleted",
      "outputs": [],
      "stateMutability": "nonpayable",
      "type": "function"
    },
    {
      "inputs": [
        {
          "internalType": "uint256",
          "name": "",
          "type": "uint256"
        }
      ],
      "name": "childContracts",
      "outputs": [
        {
          "internalType": "uint256",
          "name": "Id",
          "type": "uint256"
        },
        {
          "internalType": "string",
          "name": "customerId",
          "type": "string"
        },
        {
          "internalType": "address",
          "name": "childContract",
          "type": "address"
        },
        {
          "internalType": "uint256",
          "name": "createdDateTime",
          "type": "uint256"
        },
        {
          "internalType": "uint256",
          "name": "terminatedDateTime",
          "type": "uint256"
        },
        {
          "internalType": "bool",
          "name": "terminated",
          "type": "bool"
        },
        {
          "internalType": "bool",
          "name": "completed",
          "type": "bool"
        },
        {
          "internalType": "bool",
          "name": "subscribed",
          "type": "bool"
        },
        {
          "internalType": "uint256",
          "name": "compensation",
          "type": "uint256"
        },
        {
          "internalType": "uint256",
          "name": "subscription",
          "type": "uint256"
        },
        {
          "internalType": "uint256",
          "name": "serviceAvailabilityAgreement",
          "type": "uint256"
        }
      ],
      "stateMutability": "view",
      "type": "function"
    },
    {
      "inputs": [
        {
          "internalType": "uint256",
          "name": "index",
          "type": "uint256"
        },
        {
          "internalType": "uint256",
          "name": "subscription",
          "type": "uint256"
        }
      ],
      "name": "childSubscribed",
      "outputs": [],
      "stateMutability": "nonpayable",
      "type": "function"
    },
    {
      "inputs": [
        {
          "internalType": "string",
          "name": "customerId",
          "type": "string"
        },
        {
          "internalType": "uint8",
          "name": "serviceAvailabilityAgreement",
          "type": "uint8"
        },
        {
          "internalType": "uint8",
          "name": "allocatedVcpus",
          "type": "uint8"
        },
        {
          "internalType": "uint8",
          "name": "monitoringPeriod",
          "type": "uint8"
        }
      ],
      "name": "createChildContract",
      "outputs": [],
      "stateMutability": "nonpayable",
      "type": "function"
    },
    {
      "inputs": [
        {
          "internalType": "string",
          "name": "_customerId",
          "type": "string"
        }
      ],
      "name": "getAliveContractsByCustomerId",
      "outputs": [
        {
          "components": [
            {
              "internalType": "uint256",
              "name": "Id",
              "type": "uint256"
            },
            {
              "internalType": "string",
              "name": "customerId",
              "type": "string"
            },
            {
              "internalType": "address",
              "name": "childContract",
              "type": "address"
            },
            {
              "internalType": "uint256",
              "name": "createdDateTime",
              "type": "uint256"
            },
            {
              "internalType": "uint256",
              "name": "terminatedDateTime",
              "type": "uint256"
            },
            {
              "internalType": "bool",
              "name": "terminated",
              "type": "bool"
            },
            {
              "internalType": "bool",
              "name": "completed",
              "type": "bool"
            },
            {
              "internalType": "bool",
              "name": "subscribed",
              "type": "bool"
            },
            {
              "internalType": "uint256",
              "name": "compensation",
              "type": "uint256"
            },
            {
              "internalType": "uint256",
              "name": "subscription",
              "type": "uint256"
            },
            {
              "internalType": "uint256",
              "name": "serviceAvailabilityAgreement",
              "type": "uint256"
            }
          ],
          "internalType": "struct ParentContract.ChildContractInfo[]",
          "name": "",
          "type": "tuple[]"
        }
      ],
      "stateMutability": "view",
      "type": "function"
    },
    {
      "inputs": [
        {
          "internalType": "string",
          "name": "_customerId",
          "type": "string"
        }
      ],
      "name": "getTerminatedContractsByCustomerId",
      "outputs": [
        {
          "components": [
            {
              "internalType": "uint256",
              "name": "Id",
              "type": "uint256"
            },
            {
              "internalType": "string",
              "name": "customerId",
              "type": "string"
            },
            {
              "internalType": "address",
              "name": "childContract",
              "type": "address"
            },
            {
              "internalType": "uint256",
              "name": "createdDateTime",
              "type": "uint256"
            },
            {
              "internalType": "uint256",
              "name": "terminatedDateTime",
              "type": "uint256"
            },
            {
              "internalType": "bool",
              "name": "terminated",
              "type": "bool"
            },
            {
              "internalType": "bool",
              "name": "completed",
              "type": "bool"
            },
            {
              "internalType": "bool",
              "name": "subscribed",
              "type": "bool"
            },
            {
              "internalType": "uint256",
              "name": "compensation",
              "type": "uint256"
            },
            {
              "internalType": "uint256",
              "name": "subscription",
              "type": "uint256"
            },
            {
              "internalType": "uint256",
              "name": "serviceAvailabilityAgreement",
              "type": "uint256"
            }
          ],
          "internalType": "struct ParentContract.ChildContractInfo[]",
          "name": "",
          "type": "tuple[]"
        }
      ],
      "stateMutability": "view",
      "type": "function"
    },
    {
      "inputs": [],
      "name": "owner",
      "outputs": [
        {
          "internalType": "address",
          "name": "",
          "type": "address"
        }
      ],
      "stateMutability": "view",
      "type": "function"
    },
    {
      "inputs": [
        {
          "internalType": "uint256",
          "name": "index",
          "type": "uint256"
        }
      ],
      "name": "terminateChildContract",
      "outputs": [],
      "stateMutability": "nonpayable",
      "type": "function"
    }
  ],
  "bytecode": "0x608060405234801561001057600080fd5b50336000806101000a81548173ffffffffffffffffffffffffffffffffffffffff021916908373ffffffffffffffffffffffffffffffffffffffff160217905550613634806100606000396000f3fe60806040523480156200001157600080fd5b5060043610620000945760003560e01c80638da5cb5b11620000635780638da5cb5b146200014557806395bc99281462000167578063963c8f9314620001a7578063a3708a3814620001c75762000094565b8063189c8f6a14620000995780632ca065e114620000b9578063318ba6dd14620000ef5780637850be1a146200010f575b600080fd5b620000b76004803603810190620000b1919062001845565b620001e7565b005b620000d76004803603810190620000d191906200170e565b620003a0565b604051620000e6919062001bc4565b60405180910390f35b6200010d6004803603810190620001079190620017d8565b6200095d565b005b6200012d60048036038101906200012791906200170e565b62000a7e565b6040516200013c919062001bc4565b60405180910390f35b6200014f6200103d565b6040516200015e919062001ba7565b60405180910390f35b6200018560048036038101906200017f9190620017d8565b62001061565b6040516200019e9b9a9998979695949392919062001c67565b60405180910390f35b620001c56004803603810190620001bf919062001804565b620011a3565b005b620001e56004803603810190620001df919062001753565b620012a6565b005b600180549050831062000231576040517f08c379a0000000000000000000000000000000000000000000000000000000008152600401620002289062001be8565b60405180910390fd5b42600184815481106200026d577f4e487b7100000000000000000000000000000000000000000000000000000000600052603260045260246000fd5b9060005260206000209060090201600401819055506001808481548110620002be577f4e487b7100000000000000000000000000000000000000000000000000000000600052603260045260246000fd5b906000526020600020906009020160050160006101000a81548160ff021916908315150217905550806001848154811062000322577f4e487b7100000000000000000000000000000000000000000000000000000000600052603260045260246000fd5b906000526020600020906009020160050160016101000a81548160ff021916908315150217905550816001848154811062000386577f4e487b7100000000000000000000000000000000000000000000000000000000600052603260045260246000fd5b906000526020600020906009020160060181905550505050565b60606000805b6001805490508110156200052c5760018181548110620003ef577f4e487b7100000000000000000000000000000000000000000000000000000000600052603260045260246000fd5b906000526020600020906009020160050160009054906101000a900460ff168015620004ff5750620004fe6001828154811062000455577f4e487b7100000000000000000000000000000000000000000000000000000000600052603260045260246000fd5b90600052602060002090600902016001018054620004739062001e9b565b80601f0160208091040260200160405190810160405280929190818152602001828054620004a19062001e9b565b8015620004f25780601f10620004c657610100808354040283529160200191620004f2565b820191906000526020600020905b815481529060010190602001808311620004d457829003601f168201915b505050505085620014c6565b5b1562000516578180620005129062001f07565b9250505b8080620005239062001f07565b915050620003a6565b5060008167ffffffffffffffff81111562000570577f4e487b7100000000000000000000000000000000000000000000000000000000600052604160045260246000fd5b604051908082528060200260200182016040528015620005ad57816020015b6200059962001523565b8152602001906001900390816200058f5790505b5090506000805b600180549050811015620009515760018181548110620005fd577f4e487b7100000000000000000000000000000000000000000000000000000000600052603260045260246000fd5b906000526020600020906009020160050160009054906101000a900460ff1680156200070d57506200070c6001828154811062000663577f4e487b7100000000000000000000000000000000000000000000000000000000600052603260045260246000fd5b90600052602060002090600902016001018054620006819062001e9b565b80601f0160208091040260200160405190810160405280929190818152602001828054620006af9062001e9b565b8015620007005780601f10620006d45761010080835404028352916020019162000700565b820191906000526020600020905b815481529060010190602001808311620006e257829003601f168201915b505050505087620014c6565b5b156200093b57600181815481106200074e577f4e487b7100000000000000000000000000000000000000000000000000000000600052603260045260246000fd5b90600052602060002090600902016040518061016001604052908160008201548152602001600182018054620007849062001e9b565b80601f0160208091040260200160405190810160405280929190818152602001828054620007b29062001e9b565b8015620008035780601f10620007d75761010080835404028352916020019162000803565b820191906000526020600020905b815481529060010190602001808311620007e557829003601f168201915b505050505081526020016002820160009054906101000a900473ffffffffffffffffffffffffffffffffffffffff1673ffffffffffffffffffffffffffffffffffffffff1673ffffffffffffffffffffffffffffffffffffffff16815260200160038201548152602001600482015481526020016005820160009054906101000a900460ff161515151581526020016005820160019054906101000a900460ff161515151581526020016005820160029054906101000a900460ff1615151515815260200160068201548152602001600782015481526020016008820154815250508383815181106200091f577f4e487b7100000000000000000000000000000000000000000000000000000000600052603260045260246000fd5b60200260200101819052508180620009379062001f07565b9250505b8080620009489062001f07565b915050620005b4565b50819350505050919050565b6001805490508110620009a7576040517f08c379a00000000000000000000000000000000000000000000000000000000081526004016200099e9062001be8565b60405180910390fd5b600060018281548110620009e4577f4e487b7100000000000000000000000000000000000000000000000000000000600052603260045260246000fd5b906000526020600020906009020160020160009054906101000a900473ffffffffffffffffffffffffffffffffffffffff1690508073ffffffffffffffffffffffffffffffffffffffff16630c08bf886040518163ffffffff1660e01b8152600401600060405180830381600087803b15801562000a6157600080fd5b505af115801562000a76573d6000803e3d6000fd5b505050505050565b60606000805b60018054905081101562000c0b576001818154811062000acd577f4e487b7100000000000000000000000000000000000000000000000000000000600052603260045260246000fd5b906000526020600020906009020160050160009054906101000a900460ff1615801562000bde575062000bdd6001828154811062000b34577f4e487b7100000000000000000000000000000000000000000000000000000000600052603260045260246000fd5b9060005260206000209060090201600101805462000b529062001e9b565b80601f016020809104026020016040519081016040528092919081815260200182805462000b809062001e9b565b801562000bd15780601f1062000ba55761010080835404028352916020019162000bd1565b820191906000526020600020905b81548152906001019060200180831162000bb357829003601f168201915b505050505085620014c6565b5b1562000bf557818062000bf19062001f07565b9250505b808062000c029062001f07565b91505062000a84565b5060008167ffffffffffffffff81111562000c4f577f4e487b7100000000000000000000000000000000000000000000000000000000600052604160045260246000fd5b60405190808252806020026020018201604052801562000c8c57816020015b62000c7862001523565b81526020019060019003908162000c6e5790505b5090506000805b60018054905081101562001031576001818154811062000cdc577f4e487b7100000000000000000000000000000000000000000000000000000000600052603260045260246000fd5b906000526020600020906009020160050160009054906101000a900460ff1615801562000ded575062000dec6001828154811062000d43577f4e487b7100000000000000000000000000000000000000000000000000000000600052603260045260246000fd5b9060005260206000209060090201600101805462000d619062001e9b565b80601f016020809104026020016040519081016040528092919081815260200182805462000d8f9062001e9b565b801562000de05780601f1062000db45761010080835404028352916020019162000de0565b820191906000526020600020905b81548152906001019060200180831162000dc257829003601f168201915b505050505087620014c6565b5b156200101b576001818154811062000e2e577f4e487b7100000000000000000000000000000000000000000000000000000000600052603260045260246000fd5b9060005260206000209060090201604051806101600160405290816000820154815260200160018201805462000e649062001e9b565b80601f016020809104026020016040519081016040528092919081815260200182805462000e929062001e9b565b801562000ee35780601f1062000eb75761010080835404028352916020019162000ee3565b820191906000526020600020905b81548152906001019060200180831162000ec557829003601f168201915b505050505081526020016002820160009054906101000a900473ffffffffffffffffffffffffffffffffffffffff1673ffffffffffffffffffffffffffffffffffffffff1673ffffffffffffffffffffffffffffffffffffffff16815260200160038201548152602001600482015481526020016005820160009054906101000a900460ff161515151581526020016005820160019054906101000a900460ff161515151581526020016005820160029054906101000a900460ff16151515158152602001600682015481526020016007820154815260200160088201548152505083838151811062000fff577f4e487b7100000000000000000000000000000000000000000000000000000000600052603260045260246000fd5b60200260200101819052508180620010179062001f07565b9250505b8080620010289062001f07565b91505062000c93565b50819350505050919050565b60008054906101000a900473ffffffffffffffffffffffffffffffffffffffff1681565b600181815481106200107257600080fd5b90600052602060002090600902016000915090508060000154908060010180546200109d9062001e9b565b80601f0160208091040260200160405190810160405280929190818152602001828054620010cb9062001e9b565b80156200111c5780601f10620010f0576101008083540402835291602001916200111c565b820191906000526020600020905b815481529060010190602001808311620010fe57829003601f168201915b5050505050908060020160009054906101000a900473ffffffffffffffffffffffffffffffffffffffff16908060030154908060040154908060050160009054906101000a900460ff16908060050160019054906101000a900460ff16908060050160029054906101000a900460ff1690806006015490806007015490806008015490508b565b6001805490508210620011ed576040517f08c379a0000000000000000000000000000000000000000000000000000000008152600401620011e49062001be8565b60405180910390fd5b806001838154811062001229577f4e487b7100000000000000000000000000000000000000000000000000000000600052603260045260246000fd5b90600052602060002090600902016007018190555060018083815481106200127a577f4e487b7100000000000000000000000000000000000000000000000000000000600052603260045260246000fd5b906000526020600020906009020160050160026101000a81548160ff0219169083151502179055505050565b6000600180549050905060008160008054906101000a900473ffffffffffffffffffffffffffffffffffffffff16868686604051620012e59062001599565b620012f595949392919062001c0a565b604051809103906000f08015801562001312573d6000803e3d6000fd5b50905060006040518061016001604052808481526020018881526020018373ffffffffffffffffffffffffffffffffffffffff1681526020014281526020016000815260200160001515815260200160001515815260200160001515815260200160008152602001600081526020018760ff1681525090506001819080600181540180825580915050600190039060005260206000209060090201600090919091909150600082015181600001556020820151816001019080519060200190620013de929190620015a7565b5060408201518160020160006101000a81548173ffffffffffffffffffffffffffffffffffffffff021916908373ffffffffffffffffffffffffffffffffffffffff160217905550606082015181600301556080820151816004015560a08201518160050160006101000a81548160ff02191690831515021790555060c08201518160050160016101000a81548160ff02191690831515021790555060e08201518160050160026101000a81548160ff021916908315150217905550610100820151816006015561012082015181600701556101408201518160080155505050505050505050565b600081604051602001620014db919062001b8e565b604051602081830303815290604052805190602001208360405160200162001504919062001b8e565b6040516020818303038152906040528051906020012014905092915050565b6040518061016001604052806000815260200160608152602001600073ffffffffffffffffffffffffffffffffffffffff16815260200160008152602001600081526020016000151581526020016000151581526020016000151581526020016000815260200160008152602001600081525090565b611594806200206b83390190565b828054620015b59062001e9b565b90600052602060002090601f016020900481019282620015d9576000855562001625565b82601f10620015f457805160ff191683800117855562001625565b8280016001018555821562001625579182015b828111156200162457825182559160200191906001019062001607565b5b50905062001634919062001638565b5090565b5b808211156200165357600081600090555060010162001639565b5090565b60006200166e620016688462001d58565b62001d2f565b9050828152602081018484840111156200168757600080fd5b6200169484828562001e56565b509392505050565b600081359050620016ad816200201c565b92915050565b600082601f830112620016c557600080fd5b8135620016d784826020860162001657565b91505092915050565b600081359050620016f18162002036565b92915050565b600081359050620017088162002050565b92915050565b6000602082840312156200172157600080fd5b600082013567ffffffffffffffff8111156200173c57600080fd5b6200174a84828501620016b3565b91505092915050565b600080600080608085870312156200176a57600080fd5b600085013567ffffffffffffffff8111156200178557600080fd5b6200179387828801620016b3565b9450506020620017a687828801620016f7565b9350506040620017b987828801620016f7565b9250506060620017cc87828801620016f7565b91505092959194509250565b600060208284031215620017eb57600080fd5b6000620017fb84828501620016e0565b91505092915050565b600080604083850312156200181857600080fd5b60006200182885828601620016e0565b92505060206200183b85828601620016e0565b9150509250929050565b6000806000606084860312156200185b57600080fd5b60006200186b86828701620016e0565b93505060206200187e86828701620016e0565b925050604062001891868287016200169c565b9150509250925092565b6000620018a9838362001a56565b905092915050565b620018bc8162001dff565b82525050565b620018cd8162001dff565b82525050565b6000620018e08262001d9e565b620018ec818562001dc1565b935083602082028501620019008562001d8e565b8060005b858110156200194257848403895281516200192085826200189b565b94506200192d8362001db4565b925060208a0199505060018101905062001904565b50829750879550505050505092915050565b6200195f8162001e13565b82525050565b620019708162001e13565b82525050565b6000620019838262001da9565b6200198f818562001dd2565b9350620019a181856020860162001e65565b620019ac8162001fe2565b840191505092915050565b6000620019c48262001da9565b620019d0818562001de3565b9350620019e281856020860162001e65565b620019ed8162001fe2565b840191505092915050565b600062001a058262001da9565b62001a11818562001df4565b935062001a2381856020860162001e65565b80840191505092915050565b600062001a3e600d8362001de3565b915062001a4b8262001ff3565b602082019050919050565b60006101608301600083015162001a71600086018262001b5b565b506020830151848203602086015262001a8b828262001976565b915050604083015162001aa26040860182620018b1565b50606083015162001ab7606086018262001b5b565b50608083015162001acc608086018262001b5b565b5060a083015162001ae160a086018262001954565b5060c083015162001af660c086018262001954565b5060e083015162001b0b60e086018262001954565b5061010083015162001b2261010086018262001b5b565b5061012083015162001b3961012086018262001b5b565b5061014083015162001b5061014086018262001b5b565b508091505092915050565b62001b668162001e3f565b82525050565b62001b778162001e3f565b82525050565b62001b888162001e49565b82525050565b600062001b9c8284620019f8565b915081905092915050565b600060208201905062001bbe6000830184620018c2565b92915050565b6000602082019050818103600083015262001be08184620018d3565b905092915050565b6000602082019050818103600083015262001c038162001a2f565b9050919050565b600060a08201905062001c21600083018862001b6c565b62001c306020830187620018c2565b62001c3f604083018662001b7d565b62001c4e606083018562001b7d565b62001c5d608083018462001b7d565b9695505050505050565b60006101608201905062001c7f600083018e62001b6c565b818103602083015262001c93818d620019b7565b905062001ca4604083018c620018c2565b62001cb3606083018b62001b6c565b62001cc2608083018a62001b6c565b62001cd160a083018962001965565b62001ce060c083018862001965565b62001cef60e083018762001965565b62001cff61010083018662001b6c565b62001d0f61012083018562001b6c565b62001d1f61014083018462001b6c565b9c9b505050505050505050505050565b600062001d3b62001d4e565b905062001d49828262001ed1565b919050565b6000604051905090565b600067ffffffffffffffff82111562001d765762001d7562001fb3565b5b62001d818262001fe2565b9050602081019050919050565b6000819050602082019050919050565b600081519050919050565b600081519050919050565b6000602082019050919050565b600082825260208201905092915050565b600082825260208201905092915050565b600082825260208201905092915050565b600081905092915050565b600062001e0c8262001e1f565b9050919050565b60008115159050919050565b600073ffffffffffffffffffffffffffffffffffffffff82169050919050565b6000819050919050565b600060ff82169050919050565b82818337600083830152505050565b60005b8381101562001e8557808201518184015260208101905062001e68565b8381111562001e95576000848401525b50505050565b6000600282049050600182168062001eb457607f821691505b6020821081141562001ecb5762001eca62001f84565b5b50919050565b62001edc8262001fe2565b810181811067ffffffffffffffff8211171562001efe5762001efd62001fb3565b5b80604052505050565b600062001f148262001e3f565b91507fffffffffffffffffffffffffffffffffffffffffffffffffffffffffffffffff82141562001f4a5762001f4962001f55565b5b600182019050919050565b7f4e487b7100000000000000000000000000000000000000000000000000000000600052601160045260246000fd5b7f4e487b7100000000000000000000000000000000000000000000000000000000600052602260045260246000fd5b7f4e487b7100000000000000000000000000000000000000000000000000000000600052604160045260246000fd5b6000601f19601f8301169050919050565b7f496e76616c696420696e64657800000000000000000000000000000000000000600082015250565b620020278162001e13565b81146200203357600080fd5b50565b620020418162001e3f565b81146200204d57600080fd5b50565b6200205b8162001e49565b81146200206757600080fd5b5056fe60806040523480156200001157600080fd5b506040516200159438038062001594833981810160405281019062000037919062000423565b336000806101000a81548173ffffffffffffffffffffffffffffffffffffffff021916908373ffffffffffffffffffffffffffffffffffffffff16021790555060405180610120016040528086815260200160008054906101000a900473ffffffffffffffffffffffffffffffffffffffff1673ffffffffffffffffffffffffffffffffffffffff1681526020018573ffffffffffffffffffffffffffffffffffffffff168152602001600073ffffffffffffffffffffffffffffffffffffffff168152602001600081526020018460ff1681526020018360ff1681526020018260ff168152602001600067ffffffffffffffff81111562000162577f4e487b7100000000000000000000000000000000000000000000000000000000600052604160045260246000fd5b604051908082528060200260200182016040528015620001915781602001602082028036833780820191505090505b5081525060016000820151816000015560208201518160010160006101000a81548173ffffffffffffffffffffffffffffffffffffffff021916908373ffffffffffffffffffffffffffffffffffffffff16021790555060408201518160020160006101000a81548173ffffffffffffffffffffffffffffffffffffffff021916908373ffffffffffffffffffffffffffffffffffffffff16021790555060608201518160030160006101000a81548173ffffffffffffffffffffffffffffffffffffffff021916908373ffffffffffffffffffffffffffffffffffffffff1602179055506080820151816004015560a08201518160050160006101000a81548160ff021916908360ff16021790555060c08201518160050160016101000a81548160ff021916908360ff16021790555060e08201518160050160026101000a81548160ff021916908360ff1602179055506101008201518160060190805190602001906200030292919062000311565b5090505050505050506200053e565b82805482825590600052602060002090601f01602090048101928215620003ac5791602002820160005b838211156200037b57835183826101000a81548160ff021916908360ff16021790555092602001926001016020816000010492830192600103026200033b565b8015620003aa5782816101000a81549060ff02191690556001016020816000010492830192600103026200037b565b505b509050620003bb9190620003bf565b5090565b5b80821115620003da576000816000905550600101620003c0565b5090565b600081519050620003ef81620004f0565b92915050565b60008151905062000406816200050a565b92915050565b6000815190506200041d8162000524565b92915050565b600080600080600060a086880312156200043c57600080fd5b60006200044c88828901620003f5565b95505060206200045f88828901620003de565b945050604062000472888289016200040c565b935050606062000485888289016200040c565b925050608062000498888289016200040c565b9150509295509295909350565b6000620004b282620004b9565b9050919050565b600073ffffffffffffffffffffffffffffffffffffffff82169050919050565b6000819050919050565b600060ff82169050919050565b620004fb81620004a5565b81146200050757600080fd5b50565b6200051581620004d9565b81146200052157600080fd5b50565b6200052f81620004e3565b81146200053b57600080fd5b50565b611046806200054e6000396000f3fe6080604052600436106100555760003560e01c80630c08bf881461005a57806320423385146100715780632c05a2f11461009a57806385209ee0146100c55780638da5cb5b146100f75780638f449a0514610122575b600080fd5b34801561006657600080fd5b5061006f61012c565b005b34801561007d57600080fd5b5061009860048036038101906100939190610a76565b6102c0565b005b3480156100a657600080fd5b506100af61058c565b6040516100bc9190610ba5565b60405180910390f35b3480156100d157600080fd5b506100da6105e7565b6040516100ee989796959493929190610c60565b60405180910390f35b34801561010357600080fd5b5061010c6106a4565b6040516101199190610b8a565b60405180910390f35b61012a6106c8565b005b60008054906101000a900473ffffffffffffffffffffffffffffffffffffffff1673ffffffffffffffffffffffffffffffffffffffff163373ffffffffffffffffffffffffffffffffffffffff16146101ba576040517f08c379a00000000000000000000000000000000000000000000000000000000081526004016101b190610c20565b60405180910390fd5b60006001800160009054906101000a900473ffffffffffffffffffffffffffffffffffffffff1690508073ffffffffffffffffffffffffffffffffffffffff1663189c8f6a6001600001544760006040518463ffffffff1660e01b815260040161022693929190610d07565b600060405180830381600087803b15801561024057600080fd5b505af1158015610254573d6000803e3d6000fd5b50505050600073ffffffffffffffffffffffffffffffffffffffff16600160030160009054906101000a90505050600160030160009054906101000a900473ffffffffffffffffffffffffffffffffffffffff1673ffffffffffffffffffffffffffffffffffffffff16ff5b600160020160009054906101000a900473ffffffffffffffffffffffffffffffffffffffff1673ffffffffffffffffffffffffffffffffffffffff163373ffffffffffffffffffffffffffffffffffffffff1614610353576040517f08c379a000000000000000000000000000000000000000000000000000000000815260040161034a90610c00565b60405180910390fd5b61035b61058c565b1561039b576040517f08c379a000000000000000000000000000000000000000000000000000000000815260040161039290610be0565b60405180910390fd5b600160050160029054906101000a900460ff1660ff16600160060180549050106103fa576040517f08c379a00000000000000000000000000000000000000000000000000000000081526004016103f190610bc0565b60405180910390fd5b6000600160050160009054906101000a900460ff1660ff16600160050160019054906101000a900460ff1660ff166104329190610dd6565b90506064826104419190610dd6565b811115610496576001600601600090806001815401808255809150506001900390600052602060002090602091828204019190069091909190916101000a81548160ff021916908360ff1602179055506104e0565b6001600601600190806001815401808255809150506001900390600052602060002090602091828204019190069091909190916101000a81548160ff021916908360ff1602179055505b600160050160029054906101000a900460ff1660ff16600160060180549050141561058857610587600160060180548060200260200160405190810160405280929190818152602001828054801561057d57602002820191906000526020600020906000905b82829054906101000a900460ff1660ff16815260200190600101906020826000010492830192600103820291508084116105465790505b5050505050610848565b5b5050565b60008073ffffffffffffffffffffffffffffffffffffffff16600160030160009054906101000a900473ffffffffffffffffffffffffffffffffffffffff1673ffffffffffffffffffffffffffffffffffffffff1614905090565b60018060000154908060010160009054906101000a900473ffffffffffffffffffffffffffffffffffffffff16908060020160009054906101000a900473ffffffffffffffffffffffffffffffffffffffff16908060030160009054906101000a900473ffffffffffffffffffffffffffffffffffffffff16908060040154908060050160009054906101000a900460ff16908060050160019054906101000a900460ff16908060050160029054906101000a900460ff16905088565b60008054906101000a900473ffffffffffffffffffffffffffffffffffffffff1681565b600073ffffffffffffffffffffffffffffffffffffffff16600160030160009054906101000a900473ffffffffffffffffffffffffffffffffffffffff1673ffffffffffffffffffffffffffffffffffffffff161461075c576040517f08c379a000000000000000000000000000000000000000000000000000000000815260040161075390610c40565b60405180910390fd5b33600160030160006101000a81548173ffffffffffffffffffffffffffffffffffffffff021916908373ffffffffffffffffffffffffffffffffffffffff1602179055503460016004018190555060006001800160009054906101000a900473ffffffffffffffffffffffffffffffffffffffff1690508073ffffffffffffffffffffffffffffffffffffffff1663963c8f93600160000154476040518363ffffffff1660e01b8152600401610813929190610cde565b600060405180830381600087803b15801561082d57600080fd5b505af1158015610841573d6000803e3d6000fd5b5050505050565b6000805b82518110156108b95782818151811061088e577f4e487b7100000000000000000000000000000000000000000000000000000000600052603260045260246000fd5b602002602001015160ff16826108a49190610d4f565b915080806108b190610e85565b91505061084c565b506000600160050160029054906101000a900460ff1660ff16826001600401546108e39190610dd6565b6108ed9190610da5565b9050600160020160009054906101000a900473ffffffffffffffffffffffffffffffffffffffff1673ffffffffffffffffffffffffffffffffffffffff166108fc829081150290604051600060405180830381858888f1935050505015801561095a573d6000803e3d6000fd5b5060006001800160009054906101000a900473ffffffffffffffffffffffffffffffffffffffff1690508073ffffffffffffffffffffffffffffffffffffffff1663189c8f6a6001600001544760016040518463ffffffff1660e01b81526004016109c793929190610d07565b600060405180830381600087803b1580156109e157600080fd5b505af11580156109f5573d6000803e3d6000fd5b50505050600073ffffffffffffffffffffffffffffffffffffffff16600160030160009054906101000a90505050600160030160009054906101000a900473ffffffffffffffffffffffffffffffffffffffff1673ffffffffffffffffffffffffffffffffffffffff16ff5b600081359050610a7081610ff9565b92915050565b600060208284031215610a8857600080fd5b6000610a9684828501610a61565b91505092915050565b610aa881610e30565b82525050565b610ab781610e42565b82525050565b6000610aca601483610d3e565b9150610ad582610f2c565b602082019050919050565b6000610aed601683610d3e565b9150610af882610f55565b602082019050919050565b6000610b10601983610d3e565b9150610b1b82610f7e565b602082019050919050565b6000610b33601883610d3e565b9150610b3e82610fa7565b602082019050919050565b6000610b56601283610d3e565b9150610b6182610fd0565b602082019050919050565b610b7581610e6e565b82525050565b610b8481610e78565b82525050565b6000602082019050610b9f6000830184610a9f565b92915050565b6000602082019050610bba6000830184610aae565b92915050565b60006020820190508181036000830152610bd981610abd565b9050919050565b60006020820190508181036000830152610bf981610ae0565b9050919050565b60006020820190508181036000830152610c1981610b03565b9050919050565b60006020820190508181036000830152610c3981610b26565b9050919050565b60006020820190508181036000830152610c5981610b49565b9050919050565b600061010082019050610c76600083018b610b6c565b610c83602083018a610a9f565b610c906040830189610a9f565b610c9d6060830188610a9f565b610caa6080830187610b6c565b610cb760a0830186610b7b565b610cc460c0830185610b7b565b610cd160e0830184610b7b565b9998505050505050505050565b6000604082019050610cf36000830185610b6c565b610d006020830184610b6c565b9392505050565b6000606082019050610d1c6000830186610b6c565b610d296020830185610b6c565b610d366040830184610aae565b949350505050565b600082825260208201905092915050565b6000610d5a82610e6e565b9150610d6583610e6e565b9250827fffffffffffffffffffffffffffffffffffffffffffffffffffffffffffffffff03821115610d9a57610d99610ece565b5b828201905092915050565b6000610db082610e6e565b9150610dbb83610e6e565b925082610dcb57610dca610efd565b5b828204905092915050565b6000610de182610e6e565b9150610dec83610e6e565b9250817fffffffffffffffffffffffffffffffffffffffffffffffffffffffffffffffff0483118215151615610e2557610e24610ece565b5b828202905092915050565b6000610e3b82610e4e565b9050919050565b60008115159050919050565b600073ffffffffffffffffffffffffffffffffffffffff82169050919050565b6000819050919050565b600060ff82169050919050565b6000610e9082610e6e565b91507fffffffffffffffffffffffffffffffffffffffffffffffffffffffffffffffff821415610ec357610ec2610ece565b5b600182019050919050565b7f4e487b7100000000000000000000000000000000000000000000000000000000600052601160045260246000fd5b7f4e487b7100000000000000000000000000000000000000000000000000000000600052601260045260246000fd5b7f44617461206c656e677468206578636565646564000000000000000000000000600082015250565b7f436f6e7472616374206973207465726d696e6174656400000000000000000000600082015250565b7f4f6e6c7920706172656e742063616e2063616c6c207468697300000000000000600082015250565b7f4f6e6c79206f776e65722063616e2063616c6c20746869730000000000000000600082015250565b7f416c726561647920737562736372696265640000000000000000000000000000600082015250565b61100281610e6e565b811461100d57600080fd5b5056fea26469706673582212200ee4892d289bc49a9b58218a0d8dfaa31a6a8e2407812aee664730b8859ce5a764736f6c63430008040033a2646970667358221220b016be824d6629b347bf34e4a9433d3f6f710be0152aa8e7873d9ee2d6a59acf64736f6c63430008040033",
  "linkReferences": {},
  "deployedLinkReferences": {}
}